{
  "contractName": "Manager",
  "abi": [
    {
      "inputs": [
        {
          "internalType": "contract IERC20",
          "name": "e",
          "type": "address"
        },
        {
          "internalType": "contract IRunnerToken",
          "name": "r",
          "type": "address"
        },
        {
          "internalType": "contract RunnerNFT",
          "name": "n",
          "type": "address"
        }
      ],
      "stateMutability": "nonpayable",
      "type": "constructor"
    },
    {
      "anonymous": false,
      "inputs": [
        {
          "indexed": true,
          "internalType": "address",
          "name": "previousOwner",
          "type": "address"
        },
        {
          "indexed": true,
          "internalType": "address",
          "name": "newOwner",
          "type": "address"
        }
      ],
      "name": "OwnershipTransferred",
      "type": "event"
    },
    {
      "anonymous": false,
      "inputs": [
        {
          "indexed": false,
          "internalType": "address",
          "name": "buyer",
          "type": "address"
        },
        {
          "indexed": false,
          "internalType": "uint256",
          "name": "numPacks",
          "type": "uint256"
        }
      ],
      "name": "Purchased",
      "type": "event"
    },
    {
      "anonymous": false,
      "inputs": [
        {
          "indexed": false,
          "internalType": "address",
          "name": "buyer",
          "type": "address"
        }
      ],
      "name": "RewardRedeemed",
      "type": "event"
    },
    {
      "inputs": [],
      "name": "energyToken",
      "outputs": [
        {
          "internalType": "contract IERC20",
          "name": "",
          "type": "address"
        }
      ],
      "stateMutability": "view",
      "type": "function",
      "constant": true
    },
    {
      "inputs": [],
      "name": "nft",
      "outputs": [
        {
          "internalType": "contract RunnerNFT",
          "name": "",
          "type": "address"
        }
      ],
      "stateMutability": "view",
      "type": "function",
      "constant": true
    },
    {
      "inputs": [],
      "name": "owner",
      "outputs": [
        {
          "internalType": "address",
          "name": "",
          "type": "address"
        }
      ],
      "stateMutability": "view",
      "type": "function",
      "constant": true
    },
    {
      "inputs": [
        {
          "internalType": "address",
          "name": "",
          "type": "address"
        }
      ],
      "name": "purchases",
      "outputs": [
        {
          "internalType": "uint256",
          "name": "numPacks",
          "type": "uint256"
        },
        {
          "components": [
            {
              "internalType": "uint256",
              "name": "blockNumber",
              "type": "uint256"
            }
          ],
          "internalType": "struct Random.Seed",
          "name": "seed",
          "type": "tuple"
        },
        {
          "internalType": "uint256",
          "name": "energyReward",
          "type": "uint256"
        },
        {
          "internalType": "uint256",
          "name": "runnerReward",
          "type": "uint256"
        },
        {
          "internalType": "uint256",
          "name": "nftSeed",
          "type": "uint256"
        },
        {
          "internalType": "uint256",
          "name": "nftIds",
          "type": "uint256"
        },
        {
          "internalType": "uint256",
          "name": "rand",
          "type": "uint256"
        }
      ],
      "stateMutability": "view",
      "type": "function",
      "constant": true
    },
    {
      "inputs": [],
      "name": "renounceOwnership",
      "outputs": [],
      "stateMutability": "nonpayable",
      "type": "function"
    },
    {
      "inputs": [],
      "name": "runnerToken",
      "outputs": [
        {
          "internalType": "contract IRunnerToken",
          "name": "",
          "type": "address"
        }
      ],
      "stateMutability": "view",
      "type": "function",
      "constant": true
    },
    {
      "inputs": [
        {
          "internalType": "address",
          "name": "newOwner",
          "type": "address"
        }
      ],
      "name": "transferOwnership",
      "outputs": [],
      "stateMutability": "nonpayable",
      "type": "function"
    },
    {
      "inputs": [
        {
          "internalType": "uint256",
          "name": "amount",
          "type": "uint256"
        }
      ],
      "name": "exchange",
      "outputs": [],
      "stateMutability": "nonpayable",
      "type": "function"
    },
    {
      "inputs": [],
      "name": "emergencyWithdraw",
      "outputs": [],
      "stateMutability": "nonpayable",
      "type": "function"
    },
    {
      "inputs": [
        {
          "internalType": "uint256",
          "name": "nftId",
          "type": "uint256"
        },
        {
          "internalType": "uint256",
          "name": "bonus",
          "type": "uint256"
        },
        {
          "internalType": "uint256",
          "name": "rarity",
          "type": "uint256"
        }
      ],
      "name": "addNFTType",
      "outputs": [],
      "stateMutability": "nonpayable",
      "type": "function"
    },
    {
      "inputs": [
        {
          "internalType": "address",
          "name": "newOwner",
          "type": "address"
        }
      ],
      "name": "transferRunnerOwnerTo",
      "outputs": [],
      "stateMutability": "nonpayable",
      "type": "function"
    },
    {
      "inputs": [
        {
          "internalType": "address",
          "name": "newOwner",
          "type": "address"
        }
      ],
      "name": "transferNFTOwnerTo",
      "outputs": [],
      "stateMutability": "nonpayable",
      "type": "function"
    },
    {
      "inputs": [
        {
          "internalType": "uint256",
          "name": "numPacks",
          "type": "uint256"
        }
      ],
      "name": "buy",
      "outputs": [],
      "stateMutability": "nonpayable",
      "type": "function"
    },
    {
      "inputs": [],
      "name": "redeem",
      "outputs": [],
      "stateMutability": "nonpayable",
      "type": "function"
    },
    {
      "inputs": [],
      "name": "generateReward",
      "outputs": [],
      "stateMutability": "nonpayable",
      "type": "function"
    },
    {
      "inputs": [
        {
          "components": [
            {
              "internalType": "uint256",
              "name": "winFactor",
              "type": "uint256"
            },
            {
              "internalType": "uint256",
              "name": "packPrice",
              "type": "uint256"
            },
            {
              "internalType": "uint256",
              "name": "maxPacksPerPurchase",
              "type": "uint256"
            },
            {
              "internalType": "uint256",
              "name": "runnerPerEnergy",
              "type": "uint256"
            }
          ],
          "internalType": "struct Manager.Config",
          "name": "_config",
          "type": "tuple"
        }
      ],
      "name": "setConfig",
      "outputs": [],
      "stateMutability": "nonpayable",
      "type": "function"
    },
    {
      "inputs": [],
      "name": "getConfig",
      "outputs": [
        {
          "components": [
            {
              "internalType": "uint256",
              "name": "winFactor",
              "type": "uint256"
            },
            {
              "internalType": "uint256",
              "name": "packPrice",
              "type": "uint256"
            },
            {
              "internalType": "uint256",
              "name": "maxPacksPerPurchase",
              "type": "uint256"
            },
            {
              "internalType": "uint256",
              "name": "runnerPerEnergy",
              "type": "uint256"
            }
          ],
          "internalType": "struct Manager.Config",
          "name": "",
          "type": "tuple"
        }
      ],
      "stateMutability": "view",
      "type": "function",
      "constant": true
    }
  ],
  "bytecode": "0x61010060405260646080819052600a60a0819052600560c081905260e082905291825560068190556007919091556008553480156200003d57600080fd5b506040516200199f3803806200199f8339810160408190526200006091620000fd565b60006200006c620000f9565b600080546001600160a01b0319166001600160a01b0383169081178255604051929350917f8be0079c531659141344cd1fd0a4f28419497f9722a3daafe3b4186f6b6457e0908290a350600180546001600160a01b039485166001600160a01b03199182161790915560028054938516938216939093179092556003805491909316911617905562000169565b3390565b60008060006060848603121562000112578283fd5b83516200011f8162000150565b6020850151909350620001328162000150565b6040850151909250620001458162000150565b809150509250925092565b6001600160a01b03811681146200016657600080fd5b50565b61182680620001796000396000f3fe608060405234801561001057600080fd5b506004361061010b5760003560e01c8063ab2e9e0f116100a2578063c55c66ca11610071578063c55c66ca146101df578063d96a094a146101e7578063db2e21bc146101fa578063f2fde38b14610202578063f6dd0d5b146102155761010b565b8063ab2e9e0f146101a7578063ace4a227146101ba578063be040fb0146101c2578063c3f909d4146101ca5761010b565b806353556559116100de578063535565591461015e578063715018a614610171578063842a77d3146101795780638da5cb5b1461019f5761010b565b80631f44305a146101105780634596a15a1461012557806347ccca02146101385780634ec7fb8114610156575b600080fd5b61012361011e36600461127d565b610228565b005b610123610133366004611306565b61028e565b610140610338565b60405161014d9190611356565b60405180910390f35b610140610347565b61012361016c3660046112ee565b610356565b610123610453565b61018c61018736600461121e565b6104dc565b60405161014d97969594939291906116d5565b610140610523565b6101236101b536600461121e565b610532565b6101236105d6565b6101236107f2565b6101d2610aff565b60405161014d91906116aa565b610140610b34565b6101236101f53660046112ee565b610b43565b610123610cf8565b61012361021036600461121e565b610dd5565b61012361022336600461121e565b610e95565b610230610f04565b6001600160a01b0316610241610523565b6001600160a01b0316146102705760405162461bcd60e51b81526004016102679061152f565b60405180910390fd5b80516005556020810151600655604081015160075560600151600855565b610296610f04565b6001600160a01b03166102a7610523565b6001600160a01b0316146102cd5760405162461bcd60e51b81526004016102679061152f565b600354604051634e7f5b6960e11b81526001600160a01b0390911690639cfeb6d29061030190869086908690600401611704565b600060405180830381600087803b15801561031b57600080fd5b505af115801561032f573d6000803e3d6000fd5b50505050505050565b6003546001600160a01b031681565b6001546001600160a01b031681565b6002546008546001600160a01b03909116906340c10f1990339061037a9085611746565b6040518363ffffffff1660e01b815260040161039792919061138e565b600060405180830381600087803b1580156103b157600080fd5b505af11580156103c5573d6000803e3d6000fd5b50506001546040516323b872dd60e01b81526001600160a01b0390911692506323b872dd91506103fd9033903090869060040161136a565b602060405180830381600087803b15801561041757600080fd5b505af115801561042b573d6000803e3d6000fd5b505050506040513d601f19601f8201168201806040525081019061044f9190611245565b5050565b61045b610f04565b6001600160a01b031661046c610523565b6001600160a01b0316146104925760405162461bcd60e51b81526004016102679061152f565b600080546040516001600160a01b03909116907f8be0079c531659141344cd1fd0a4f28419497f9722a3daafe3b4186f6b6457e0908390a3600080546001600160a01b0319169055565b600460208181526000928352604092839020805484519283019094526001810154825260028101546003820154938201546005830154600690930154939491939192909187565b6000546001600160a01b031690565b61053a610f04565b6001600160a01b031661054b610523565b6001600160a01b0316146105715760405162461bcd60e51b81526004016102679061152f565b60025460405163f2fde38b60e01b81526001600160a01b039091169063f2fde38b906105a1908490600401611356565b600060405180830381600087803b1580156105bb57600080fd5b505af11580156105cf573d6000803e3d6000fd5b5050505050565b33600090815260046020526040902080546106035760405162461bcd60e51b815260040161026790611501565b60408051602081019091526001820154815261061e90610f08565b61063a5760405162461bcd60e51b815260040161026790611501565b600061064882600101610f0e565b90506000610659620186a0836117b0565b600684018190559050600080806106716064856117b0565b9050600060646106818187611732565b61068b91906117b0565b905060148211156106c1576106a1600a836117b0565b6106ac90600161171a565b6106be90670de0b6b3a7640000611746565b92505b6005548754606491906106d49086611746565b6106de9190611746565b6106e89190611732565b6003880155605a81111561073d57600a61070281836117b0565b61070d90600161171a565b6107179190611732565b60065461072c90674563918244f40000611746565b6107369190611746565b935061078a565b601481111561078a576003600a61075481846117b0565b60065461076990670de0b6b3a7640000611746565b6107739190611746565b61077d9190611732565b6107879190611732565b93505b6008546107979085611732565b60055488549195506064916107ac9087611746565b6107b69190611746565b6107c09190611732565b6002880155670de0b6b3a76400006107d787610f79565b6107e191906117b0565b876004018190555050505050505050565b336000908152600460205260409020805461081f5760405162461bcd60e51b815260040161026790611501565b60408051602081019091526001820154815261083a90610f08565b6108565760405162461bcd60e51b815260040161026790611501565b61085e6105d6565b6003810154156108d15760025460038201546040516340c10f1960e01b81526001600160a01b03909216916340c10f199161089e9133919060040161138e565b600060405180830381600087803b1580156108b857600080fd5b505af11580156108cc573d6000803e3d6000fd5b505050505b6002810154156109895760028101546001546040516370a0823160e01b81526000916001600160a01b0316906370a0823190610911903090600401611356565b60206040518083038186803b15801561092957600080fd5b505afa15801561093d573d6000803e3d6000fd5b505050506040513d601f19601f820116820180604052508101906109619190611265565b90508181101561096f578091505b600154610986906001600160a01b03163384610fee565b50505b60048101546000600583018190555b8254811015610abe5760006109af6103e8846117b0565b90506102bc811115610a9e5760016103e78214156109cf575060046109ef565b6103b68211156109e1575060036109ef565b6103528211156109ef575060025b60035460405163587c781d60e01b81526000916001600160a01b03169063587c781d90610a24903390869088906004016113a7565b602060405180830381600087803b158015610a3e57600080fd5b505af1158015610a52573d6000803e3d6000fd5b505050506040513d601f19601f82011682018060405250810190610a769190611265565b9050808660050154620186a0610a8c9190611746565b610a96919061171a565b600587015550505b610aaa6103e884611732565b92505080610ab790611795565b9050610998565b50600082556040517f2f00e5a58a043ea9d5d2724a9b888571b883ca513b06f0d3a777587896e1e9cf90610af3903390611356565b60405180910390a15050565b610b076111f6565b50604080516080810182526005548152600654602082015260075491810191909152600854606082015290565b6002546001600160a01b031681565b33600090815260046020526040902081610b6f5760405162461bcd60e51b815260040161026790611564565b805415610b8e5760405162461bcd60e51b8152600401610267906115e0565b600754821115610bb05760405162461bcd60e51b8152600401610267906113fb565b600654600090610bc09084611746565b610bd290670de0b6b3a7640000611746565b600254604051632770a7eb60e21b81529192506001600160a01b031690639dc29fac90610c05903390859060040161138e565b600060405180830381600087803b158015610c1f57600080fd5b505af1158015610c33573d6000803e3d6000fd5b50506040805160e0810182528681528151602081810184524382528083019182526000838501818152606085018281526080860183815260a0870184815260c0880185815233808752600497889052958a90209851895596515160018901559251600288015590516003870155519285019290925590516005840155905160069092019190915590517fa512fb2532ca8587f236380171326ebb69670e86a2ba0c4412a3fcca4c3ada9b9350610ceb9250869061138e565b60405180910390a1505050565b610d00610f04565b6001600160a01b0316610d11610523565b6001600160a01b031614610d375760405162461bcd60e51b81526004016102679061152f565b6001546040516370a0823160e01b81526000916001600160a01b0316906370a0823190610d68903090600401611356565b60206040518083038186803b158015610d8057600080fd5b505afa158015610d94573d6000803e3d6000fd5b505050506040513d601f19601f82011682018060405250810190610db89190611265565b600154909150610dd2906001600160a01b03163383610fee565b50565b610ddd610f04565b6001600160a01b0316610dee610523565b6001600160a01b031614610e145760405162461bcd60e51b81526004016102679061152f565b6001600160a01b038116610e3a5760405162461bcd60e51b815260040161026790611475565b600080546040516001600160a01b03808516939216917f8be0079c531659141344cd1fd0a4f28419497f9722a3daafe3b4186f6b6457e091a3600080546001600160a01b0319166001600160a01b0392909216919091179055565b610e9d610f04565b6001600160a01b0316610eae610523565b6001600160a01b031614610ed45760405162461bcd60e51b81526004016102679061152f565b60035460405163f2fde38b60e01b81526001600160a01b039091169063f2fde38b906105a1908490600401611356565b3390565b51431190565b604080516020810190915281548152600090610f2990611049565b610f455760405162461bcd60e51b81526004016102679061143e565b81544311610f655760405162461bcd60e51b81526004016102679061159b565b8154610f7290600161171a565b4092915050565b6000600282604051602001610f8e9190611331565b60408051601f1981840301815290829052610fa89161133a565b602060405180830381855afa158015610fc5573d6000803e3d6000fd5b5050506040513d601f19601f82011682018060405250810190610fe89190611265565b92915050565b6110448363a9059cbb60e01b848460405160240161100d92919061138e565b60408051601f198184030181529190526020810180516001600160e01b03166001600160e01b03199093169290921790915261104f565b505050565b51151590565b60006110a4826040518060400160405280602081526020017f5361666545524332303a206c6f772d6c6576656c2063616c6c206661696c6564815250856001600160a01b03166110de9092919063ffffffff16565b80519091501561104457808060200190518101906110c29190611245565b6110445760405162461bcd60e51b815260040161026790611660565b60606110ed84846000856110f7565b90505b9392505050565b6060824710156111195760405162461bcd60e51b8152600401610267906114bb565b611122856111b7565b61113e5760405162461bcd60e51b815260040161026790611629565b600080866001600160a01b0316858760405161115a919061133a565b60006040518083038185875af1925050503d8060008114611197576040519150601f19603f3d011682016040523d82523d6000602084013e61119c565b606091505b50915091506111ac8282866111bd565b979650505050505050565b3b151590565b606083156111cc5750816110f0565b8251156111dc5782518084602001fd5b8160405162461bcd60e51b815260040161026791906113c8565b6040518060800160405280600081526020016000815260200160008152602001600081525090565b60006020828403121561122f578081fd5b81356001600160a01b03811681146110f0578182fd5b600060208284031215611256578081fd5b815180151581146110f0578182fd5b600060208284031215611276578081fd5b5051919050565b60006080828403121561128e578081fd5b6040516080810181811067ffffffffffffffff821117156112bd57634e487b7160e01b83526041600452602483fd5b8060405250823581526020830135602082015260408301356040820152606083013560608201528091505092915050565b6000602082840312156112ff578081fd5b5035919050565b60008060006060848603121561131a578182fd5b505081359360208301359350604090920135919050565b90815260200190565b6000825161134c818460208701611765565b9190910192915050565b6001600160a01b0391909116815260200190565b6001600160a01b039384168152919092166020820152604081019190915260600190565b6001600160a01b03929092168252602082015260400190565b6001600160a01b039390931683526020830191909152604082015260600190565b60006020825282518060208401526113e7816040850160208701611765565b601f01601f19169190910160400192915050565b60208082526023908201527f6578636565646564206d6178696d756d207061636b732070657220707572636860408201526261736560e81b606082015260800190565b60208082526017908201527f53656564206973206e6f7420696e697469616c697a6564000000000000000000604082015260600190565b60208082526026908201527f4f776e61626c653a206e6577206f776e657220697320746865207a65726f206160408201526564647265737360d01b606082015260800190565b60208082526026908201527f416464726573733a20696e73756666696369656e742062616c616e636520666f6040820152651c8818d85b1b60d21b606082015260800190565b6020808252601490820152731c1d5c98da185cd9481c1858dadcc8199a5c9cdd60621b604082015260600190565b6020808252818101527f4f776e61626c653a2063616c6c6572206973206e6f7420746865206f776e6572604082015260600190565b6020808252601e908201527f6e756d5061636b732073686f756c64206265206d6f7265207468616e20300000604082015260600190565b60208082526025908201527f57616974206f6e65206d6f726520626c6f636b20746f206f70656e20746869736040820152640814d9595960da1b606082015260800190565b60208082526029908201527f6f70656e207061636b73206265666f7265206d616b696e6720616e6f7468657260408201526820707572636861736560b81b606082015260800190565b6020808252601d908201527f416464726573733a2063616c6c20746f206e6f6e2d636f6e7472616374000000604082015260600190565b6020808252602a908201527f5361666545524332303a204552433230206f7065726174696f6e20646964206e6040820152691bdd081cdd58d8d9595960b21b606082015260800190565b8151815260208083015190820152604080830151908201526060918201519181019190915260800190565b9687529451602087015260408601939093526060850191909152608084015260a083015260c082015260e00190565b9283526020830191909152604082015260600190565b6000821982111561172d5761172d6117c4565b500190565b600082611741576117416117da565b500490565b6000816000190483118215151615611760576117606117c4565b500290565b60005b83811015611780578181015183820152602001611768565b8381111561178f576000848401525b50505050565b60006000198214156117a9576117a96117c4565b5060010190565b6000826117bf576117bf6117da565b500690565b634e487b7160e01b600052601160045260246000fd5b634e487b7160e01b600052601260045260246000fdfea264697066735822122078642e765cfaa0b457a5129b1806d9664f05c6ac9634c97b5674738ae2a37ed764736f6c63430008000033",
  "immutableReferences": {},
  "source": "// SPDX-License-Identifier: MIT\npragma solidity >=0.8.0;\npragma experimental ABIEncoderV2;\n\nimport \"../oz/utils/structs/EnumerableSet.sol\";\nimport \"../oz/access/Ownable.sol\";\nimport \"./RunnerNFT.sol\";\nimport \"./Random.sol\";\nimport \"../oz/token/ERC20/ERC20.sol\";\nimport \"../oz/token/ERC20/IERC20.sol\";\nimport \"../oz/token/ERC20/utils/SafeERC20.sol\";\n\ninterface IRunnerToken is IERC20 {\n    function transferOwnership(address newOwner) external;\n    function mint(address _to, uint256 _amount) external;\n    function burn(address _to, uint256 _amount) external;\n}\n\ncontract Manager is Ownable {\n    \n    using Random for Random.Seed;\n    using SafeERC20 for IERC20;\n    \n    struct Config {\n        uint winFactor;\n        uint packPrice;\n        uint maxPacksPerPurchase;\n        uint runnerPerEnergy;\n    }\n    \n    struct Purchase {\n        uint numPacks;\n        Random.Seed seed;\n        uint256 energyReward;\n        uint256 runnerReward;\n        uint nftSeed;\n        uint nftIds;\n        uint rand;\n    }\n    \n    event RewardRedeemed(address buyer);\n    event Purchased(address buyer, uint numPacks);\n\n    IERC20 public energyToken;\n    IRunnerToken public runnerToken;\n    RunnerNFT public nft;\n    \n    mapping(address=>Purchase) public purchases;\n    \n    Config config = Config(100, 10, 5, 10);\n    \n    constructor(IERC20 e, IRunnerToken r, RunnerNFT n) {\n        energyToken = e;\n        runnerToken = r;\n        nft = n;\n    }\n\n    //Main functionality\n\n    function exchange(uint amount) public {\n        runnerToken.mint(msg.sender, amount * config.runnerPerEnergy);\n        energyToken.transferFrom(msg.sender, address(this), amount);\n    }\n    \n    function emergencyWithdraw() public onlyOwner {\n        uint amount = energyToken.balanceOf(address(this));\n        energyToken.safeTransfer(msg.sender, amount);\n    }\n\n    function addNFTType(uint nftId, uint bonus, uint rarity) public onlyOwner {\n        nft.addType(nftId, bonus, rarity);\n    }\n\n    function transferRunnerOwnerTo(address newOwner) public onlyOwner {\n        runnerToken.transferOwnership(newOwner);\n    }\n    \n    function transferNFTOwnerTo(address newOwner) public onlyOwner {\n        nft.transferOwnership(newOwner);\n    }\n    \n    function buy(uint numPacks) public {\n        Purchase storage purchase = purchases[msg.sender];\n        require(numPacks > 0, \"numPacks should be more than 0\");\n        require(purchase.numPacks == 0, \"open packs before making another purchase\");\n        require(numPacks <= config.maxPacksPerPurchase, \"exceeded maximum packs per purchase\");\n        \n        uint price = numPacks * config.packPrice * 1e18;\n        \n        runnerToken.burn(msg.sender, price);\n        // runnerToken.transfer(address(this), price);\n        \n        purchases[msg.sender] = Purchase(numPacks, Random.Seed(block.number), 0, 0, 0, 0, 0);\n        \n        emit Purchased(msg.sender, numPacks);\n    }\n    \n    function redeem() public {\n        Purchase storage purchase = purchases[msg.sender];\n        \n        require(purchase.numPacks > 0, \"purchase packs first\");\n        require(purchase.seed.isReady(), \"purchase packs first\");\n        \n        generateReward();\n        \n        if (purchase.runnerReward > 0) {\n            runnerToken.mint(msg.sender, purchase.runnerReward);        \n        }\n        \n        if (purchase.energyReward > 0) {\n            uint energyReward = purchase.energyReward;    \n            uint energyBalance = energyToken.balanceOf(address(this));\n            if (energyBalance < energyReward) {\n                energyReward = energyBalance;\n            }\n            energyToken.safeTransfer(msg.sender, energyReward);\n        }\n    \n        uint nftSeedIterator = purchase.nftSeed;\n        purchase.nftIds = 0;\n        for(uint i = 0; i < purchase.numPacks; ++i) {\n            uint seed = nftSeedIterator % 1000;\n            \n            if (seed > 700) {\n                uint rarity = 1;\n                if (seed == 999) {\n                    rarity = 4;\n                } else\n                if (seed > 950) {\n                    rarity = 3;\n                } else\n                if (seed > 850) {\n                    rarity = 2;\n                }\n            \n            \n                uint tokenId = nft.createRandomTokenWithRarity(msg.sender, rarity, seed);\n                \n                purchase.nftIds = purchase.nftIds * 100000 + tokenId;\n            }\n            nftSeedIterator = nftSeedIterator / 1000;\n        }\n        \n        purchase.numPacks = 0;\n        \n        emit RewardRedeemed(msg.sender);\n    }\n    \n    function generateReward() public {\n        Purchase storage purchase = purchases[msg.sender];\n        require(purchase.numPacks > 0, \"purchase packs first\");\n        require(purchase.seed.isReady(), \"purchase packs first\");\n        \n        bytes32 seed = purchase.seed.get();\n        uint rand = uint(seed) % 100000;        \n        purchase.rand = rand;\n        uint energyReward = 0;\n        uint runnerReward = 0;\n        \n        uint runnerNumber = rand % 100;\n        uint energyNumber = rand / 100 % 100;\n        \n        if (runnerNumber > 20) {\n            runnerReward = 1e18 * (runnerNumber % 10 + 1);\n        }\n        \n        purchase.runnerReward = runnerReward * purchase.numPacks * config.winFactor / 100;\n        \n        if (energyNumber > 90) {\n            energyReward = 1e18 * 5 * config.packPrice * ((energyNumber % 10 + 1) / 10);\n        } else \n        if (energyNumber > 20) {\n            energyReward =  1e18 * config.packPrice * (energyNumber % 10) / 10 / 3;\n        }\n        energyReward = energyReward / config.runnerPerEnergy;\n        purchase.energyReward = energyReward * purchase.numPacks * config.winFactor / 100;\n        \n        purchase.nftSeed = uint(rehash(seed)) % 1000000000000000000;    \n    }\n    \n    function rehash(bytes32 b32) internal pure returns (bytes32) {\n      return sha256(abi.encodePacked(b32));\n    }\n    \n    //Configuration\n    \n    \n    function setConfig(Config memory _config) public onlyOwner {\n        config = _config;\n    }\n    \n    function getConfig() external view returns (Config memory) {\n        return config;\n    }\n}",
  "sourcePath": "/Users/alexei120991/Documents/Project/RUNNER/alex/runner-manager/contracts/Manager.sol",
  "compiler": {
    "name": "solc",
    "version": "0.8.0+commit.c7dfd78e.Emscripten.clang"
  },
  "schemaVersion": "3.3.4",
  "updatedAt": "2021-03-13T13:40:48.992Z",
  "networkType": "ethereum",
  "devdoc": {
    "kind": "dev",
    "methods": {
      "owner()": {
        "details": "Returns the address of the current owner."
      },
      "renounceOwnership()": {
        "details": "Leaves the contract without owner. It will not be possible to call `onlyOwner` functions anymore. Can only be called by the current owner. NOTE: Renouncing ownership will leave the contract without an owner, thereby removing any functionality that is only available to the owner."
      },
      "transferOwnership(address)": {
        "details": "Transfers ownership of the contract to a new account (`newOwner`). Can only be called by the current owner."
      }
    },
    "version": 1
  },
  "userdoc": {
    "kind": "user",
    "methods": {},
    "version": 1
  }
}