{
  "contractName": "RunnerNFT",
  "abi": [
    {
      "inputs": [],
      "stateMutability": "nonpayable",
      "type": "constructor"
    },
    {
      "anonymous": false,
      "inputs": [
        {
          "indexed": true,
          "internalType": "address",
          "name": "owner",
          "type": "address"
        },
        {
          "indexed": true,
          "internalType": "address",
          "name": "approved",
          "type": "address"
        },
        {
          "indexed": true,
          "internalType": "uint256",
          "name": "tokenId",
          "type": "uint256"
        }
      ],
      "name": "Approval",
      "type": "event"
    },
    {
      "anonymous": false,
      "inputs": [
        {
          "indexed": true,
          "internalType": "address",
          "name": "owner",
          "type": "address"
        },
        {
          "indexed": true,
          "internalType": "address",
          "name": "operator",
          "type": "address"
        },
        {
          "indexed": false,
          "internalType": "bool",
          "name": "approved",
          "type": "bool"
        }
      ],
      "name": "ApprovalForAll",
      "type": "event"
    },
    {
      "anonymous": false,
      "inputs": [
        {
          "indexed": true,
          "internalType": "address",
          "name": "previousOwner",
          "type": "address"
        },
        {
          "indexed": true,
          "internalType": "address",
          "name": "newOwner",
          "type": "address"
        }
      ],
      "name": "OwnershipTransferred",
      "type": "event"
    },
    {
      "anonymous": false,
      "inputs": [
        {
          "indexed": true,
          "internalType": "address",
          "name": "from",
          "type": "address"
        },
        {
          "indexed": true,
          "internalType": "address",
          "name": "to",
          "type": "address"
        },
        {
          "indexed": true,
          "internalType": "uint256",
          "name": "tokenId",
          "type": "uint256"
        }
      ],
      "name": "Transfer",
      "type": "event"
    },
    {
      "inputs": [
        {
          "internalType": "address",
          "name": "to",
          "type": "address"
        },
        {
          "internalType": "uint256",
          "name": "tokenId",
          "type": "uint256"
        }
      ],
      "name": "approve",
      "outputs": [],
      "stateMutability": "nonpayable",
      "type": "function"
    },
    {
      "inputs": [
        {
          "internalType": "address",
          "name": "owner",
          "type": "address"
        }
      ],
      "name": "balanceOf",
      "outputs": [
        {
          "internalType": "uint256",
          "name": "",
          "type": "uint256"
        }
      ],
      "stateMutability": "view",
      "type": "function",
      "constant": true
    },
    {
      "inputs": [
        {
          "internalType": "uint256",
          "name": "tokenId",
          "type": "uint256"
        }
      ],
      "name": "getApproved",
      "outputs": [
        {
          "internalType": "address",
          "name": "",
          "type": "address"
        }
      ],
      "stateMutability": "view",
      "type": "function",
      "constant": true
    },
    {
      "inputs": [
        {
          "internalType": "address",
          "name": "owner",
          "type": "address"
        },
        {
          "internalType": "address",
          "name": "operator",
          "type": "address"
        }
      ],
      "name": "isApprovedForAll",
      "outputs": [
        {
          "internalType": "bool",
          "name": "",
          "type": "bool"
        }
      ],
      "stateMutability": "view",
      "type": "function",
      "constant": true
    },
    {
      "inputs": [],
      "name": "name",
      "outputs": [
        {
          "internalType": "string",
          "name": "",
          "type": "string"
        }
      ],
      "stateMutability": "view",
      "type": "function",
      "constant": true
    },
    {
      "inputs": [],
      "name": "owner",
      "outputs": [
        {
          "internalType": "address",
          "name": "",
          "type": "address"
        }
      ],
      "stateMutability": "view",
      "type": "function",
      "constant": true
    },
    {
      "inputs": [
        {
          "internalType": "uint256",
          "name": "tokenId",
          "type": "uint256"
        }
      ],
      "name": "ownerOf",
      "outputs": [
        {
          "internalType": "address",
          "name": "",
          "type": "address"
        }
      ],
      "stateMutability": "view",
      "type": "function",
      "constant": true
    },
    {
      "inputs": [],
      "name": "renounceOwnership",
      "outputs": [],
      "stateMutability": "nonpayable",
      "type": "function"
    },
    {
      "inputs": [
        {
          "internalType": "address",
          "name": "from",
          "type": "address"
        },
        {
          "internalType": "address",
          "name": "to",
          "type": "address"
        },
        {
          "internalType": "uint256",
          "name": "tokenId",
          "type": "uint256"
        }
      ],
      "name": "safeTransferFrom",
      "outputs": [],
      "stateMutability": "nonpayable",
      "type": "function"
    },
    {
      "inputs": [
        {
          "internalType": "address",
          "name": "from",
          "type": "address"
        },
        {
          "internalType": "address",
          "name": "to",
          "type": "address"
        },
        {
          "internalType": "uint256",
          "name": "tokenId",
          "type": "uint256"
        },
        {
          "internalType": "bytes",
          "name": "_data",
          "type": "bytes"
        }
      ],
      "name": "safeTransferFrom",
      "outputs": [],
      "stateMutability": "nonpayable",
      "type": "function"
    },
    {
      "inputs": [
        {
          "internalType": "address",
          "name": "operator",
          "type": "address"
        },
        {
          "internalType": "bool",
          "name": "approved",
          "type": "bool"
        }
      ],
      "name": "setApprovalForAll",
      "outputs": [],
      "stateMutability": "nonpayable",
      "type": "function"
    },
    {
      "inputs": [
        {
          "internalType": "bytes4",
          "name": "interfaceId",
          "type": "bytes4"
        }
      ],
      "name": "supportsInterface",
      "outputs": [
        {
          "internalType": "bool",
          "name": "",
          "type": "bool"
        }
      ],
      "stateMutability": "view",
      "type": "function",
      "constant": true
    },
    {
      "inputs": [],
      "name": "symbol",
      "outputs": [
        {
          "internalType": "string",
          "name": "",
          "type": "string"
        }
      ],
      "stateMutability": "view",
      "type": "function",
      "constant": true
    },
    {
      "inputs": [
        {
          "internalType": "uint256",
          "name": "index",
          "type": "uint256"
        }
      ],
      "name": "tokenByIndex",
      "outputs": [
        {
          "internalType": "uint256",
          "name": "",
          "type": "uint256"
        }
      ],
      "stateMutability": "view",
      "type": "function",
      "constant": true
    },
    {
      "inputs": [
        {
          "internalType": "address",
          "name": "owner",
          "type": "address"
        },
        {
          "internalType": "uint256",
          "name": "index",
          "type": "uint256"
        }
      ],
      "name": "tokenOfOwnerByIndex",
      "outputs": [
        {
          "internalType": "uint256",
          "name": "",
          "type": "uint256"
        }
      ],
      "stateMutability": "view",
      "type": "function",
      "constant": true
    },
    {
      "inputs": [],
      "name": "totalSupply",
      "outputs": [
        {
          "internalType": "uint256",
          "name": "",
          "type": "uint256"
        }
      ],
      "stateMutability": "view",
      "type": "function",
      "constant": true
    },
    {
      "inputs": [
        {
          "internalType": "address",
          "name": "from",
          "type": "address"
        },
        {
          "internalType": "address",
          "name": "to",
          "type": "address"
        },
        {
          "internalType": "uint256",
          "name": "tokenId",
          "type": "uint256"
        }
      ],
      "name": "transferFrom",
      "outputs": [],
      "stateMutability": "nonpayable",
      "type": "function"
    },
    {
      "inputs": [
        {
          "internalType": "address",
          "name": "newOwner",
          "type": "address"
        }
      ],
      "name": "transferOwnership",
      "outputs": [],
      "stateMutability": "nonpayable",
      "type": "function"
    },
    {
      "inputs": [
        {
          "internalType": "address",
          "name": "holder",
          "type": "address"
        },
        {
          "internalType": "uint256",
          "name": "typeId",
          "type": "uint256"
        }
      ],
      "name": "createToken",
      "outputs": [
        {
          "internalType": "uint256",
          "name": "tokenId",
          "type": "uint256"
        }
      ],
      "stateMutability": "nonpayable",
      "type": "function"
    },
    {
      "inputs": [
        {
          "internalType": "address",
          "name": "holder",
          "type": "address"
        },
        {
          "internalType": "uint256",
          "name": "rarity",
          "type": "uint256"
        },
        {
          "internalType": "uint256",
          "name": "seed",
          "type": "uint256"
        }
      ],
      "name": "createRandomTokenWithRarity",
      "outputs": [
        {
          "internalType": "uint256",
          "name": "",
          "type": "uint256"
        }
      ],
      "stateMutability": "nonpayable",
      "type": "function"
    },
    {
      "inputs": [
        {
          "internalType": "uint256",
          "name": "id",
          "type": "uint256"
        },
        {
          "internalType": "uint256",
          "name": "bonus",
          "type": "uint256"
        },
        {
          "internalType": "uint256",
          "name": "rarity",
          "type": "uint256"
        }
      ],
      "name": "addType",
      "outputs": [],
      "stateMutability": "nonpayable",
      "type": "function"
    },
    {
      "inputs": [
        {
          "internalType": "uint256",
          "name": "id",
          "type": "uint256"
        }
      ],
      "name": "removeType",
      "outputs": [],
      "stateMutability": "nonpayable",
      "type": "function"
    },
    {
      "inputs": [
        {
          "internalType": "uint256",
          "name": "id",
          "type": "uint256"
        }
      ],
      "name": "getTypeById",
      "outputs": [
        {
          "components": [
            {
              "internalType": "uint256",
              "name": "id",
              "type": "uint256"
            },
            {
              "internalType": "uint256",
              "name": "bonus",
              "type": "uint256"
            },
            {
              "internalType": "uint256",
              "name": "rarity",
              "type": "uint256"
            }
          ],
          "internalType": "struct RunnerNFT.Type",
          "name": "",
          "type": "tuple"
        }
      ],
      "stateMutability": "view",
      "type": "function",
      "constant": true
    },
    {
      "inputs": [
        {
          "internalType": "uint256",
          "name": "id",
          "type": "uint256"
        }
      ],
      "name": "getTypeByTokenId",
      "outputs": [
        {
          "components": [
            {
              "internalType": "uint256",
              "name": "id",
              "type": "uint256"
            },
            {
              "internalType": "uint256",
              "name": "bonus",
              "type": "uint256"
            },
            {
              "internalType": "uint256",
              "name": "rarity",
              "type": "uint256"
            }
          ],
          "internalType": "struct RunnerNFT.Type",
          "name": "",
          "type": "tuple"
        }
      ],
      "stateMutability": "view",
      "type": "function",
      "constant": true
    },
    {
      "inputs": [],
      "name": "getTypeCount",
      "outputs": [
        {
          "internalType": "uint256",
          "name": "",
          "type": "uint256"
        }
      ],
      "stateMutability": "view",
      "type": "function",
      "constant": true
    },
    {
      "inputs": [
        {
          "internalType": "uint256",
          "name": "index",
          "type": "uint256"
        }
      ],
      "name": "getTypeIdAtIndex",
      "outputs": [
        {
          "internalType": "uint256",
          "name": "",
          "type": "uint256"
        }
      ],
      "stateMutability": "view",
      "type": "function",
      "constant": true
    },
    {
      "inputs": [
        {
          "internalType": "uint256",
          "name": "index",
          "type": "uint256"
        }
      ],
      "name": "getTypeAtIndex",
      "outputs": [
        {
          "components": [
            {
              "internalType": "uint256",
              "name": "id",
              "type": "uint256"
            },
            {
              "internalType": "uint256",
              "name": "bonus",
              "type": "uint256"
            },
            {
              "internalType": "uint256",
              "name": "rarity",
              "type": "uint256"
            }
          ],
          "internalType": "struct RunnerNFT.Type",
          "name": "tokenType",
          "type": "tuple"
        }
      ],
      "stateMutability": "view",
      "type": "function",
      "constant": true
    },
    {
      "inputs": [
        {
          "internalType": "uint256",
          "name": "tokenId",
          "type": "uint256"
        }
      ],
      "name": "tokenURI",
      "outputs": [
        {
          "internalType": "string",
          "name": "",
          "type": "string"
        }
      ],
      "stateMutability": "view",
      "type": "function",
      "constant": true
    }
  ],
  "bytecode": "0x608060405260006010553480156200001657600080fd5b50604080518082018252600a815269149d5b9b995c8813919560b21b602080830191825283518085019094526009845268149d5b9b995c93919560ba1b9084015281519192916200006a91600091620000ed565b50805162000080906001906020840190620000ed565b505050600062000095620000e960201b60201c565b600a80546001600160a01b0319166001600160a01b038316908117909155604051919250906000907f8be0079c531659141344cd1fd0a4f28419497f9722a3daafe3b4186f6b6457e0908290a350620001d0565b3390565b828054620000fb9062000193565b90600052602060002090601f0160209004810192826200011f57600085556200016a565b82601f106200013a57805160ff19168380011785556200016a565b828001600101855582156200016a579182015b828111156200016a5782518255916020019190600101906200014d565b50620001789291506200017c565b5090565b5b808211156200017857600081556001016200017d565b600281046001821680620001a857607f821691505b60208210811415620001ca57634e487b7160e01b600052602260045260246000fd5b50919050565b61241a80620001e06000396000f3fe608060405234801561001057600080fd5b50600436106101c45760003560e01c8063715018a6116100f9578063a22cb46511610097578063c87b56dd11610071578063c87b56dd1461039b578063e985e9c5146103ae578063eede7b44146103c1578063f2fde38b146103d4576101c4565b8063a22cb46514610362578063b6aa991614610375578063b88d4fde14610388576101c4565b80638da5cb5b116100d35780638da5cb5b1461032c5780638de8f8481461033457806395d89b41146103475780639cfeb6d21461034f576101c4565b8063715018a6146102fc5780637d02b1a31461030457806386620a461461030c576101c4565b806342842e0e11610166578063590315a611610140578063590315a6146102b05780636352211e146102c35780636a10d4d6146102d657806370a08231146102e9576101c4565b806342842e0e146102775780634f6ccce71461028a578063587c781d1461029d576101c4565b8063095ea7b3116101a2578063095ea7b31461022757806318160ddd1461023c57806323b872dd146102515780632f745c5914610264576101c4565b806301ffc9a7146101c957806306fdde03146101f2578063081812fc14610207575b600080fd5b6101dc6101d7366004611afb565b6103e7565b6040516101e99190611c90565b60405180910390f35b6101fa610414565b6040516101e99190611c9b565b61021a610215366004611b33565b6104a6565b6040516101e99190611c49565b61023a610235366004611aa0565b6104f2565b005b61024461058a565b6040516101e991906122a7565b61023a61025f36600461195f565b610590565b610244610272366004611aa0565b6105c8565b61023a61028536600461195f565b61061d565b610244610298366004611b33565b610638565b6102446102ab366004611ac9565b610693565b61023a6102be366004611b33565b61073e565b61021a6102d1366004611b33565b6107dc565b6102446102e4366004611aa0565b610811565b6102446102f7366004611913565b610883565b61023a6108c7565b610244610950565b61031f61031a366004611b33565b610961565b6040516101e99190612286565b61021a6109ac565b61031f610342366004611b33565b6109bb565b6101fa610a10565b61023a61035d366004611b4b565b610a1f565b61023a610370366004611a66565b610ae6565b61031f610383366004611b33565b610bb4565b61023a61039636600461199a565b610bf5565b6101fa6103a9366004611b33565b610c2e565b6101dc6103bc36600461192d565b610c99565b6102446103cf366004611b33565b610cc7565b61023a6103e2366004611913565b610cd4565b60006001600160e01b0319821663780e9d6360e01b148061040c575061040c82610d95565b90505b919050565b6060600080546104239061231f565b80601f016020809104026020016040519081016040528092919081815260200182805461044f9061231f565b801561049c5780601f106104715761010080835404028352916020019161049c565b820191906000526020600020905b81548152906001019060200180831161047f57829003601f168201915b5050505050905090565b60006104b182610dd5565b6104d65760405162461bcd60e51b81526004016104cd90611ff6565b60405180910390fd5b506000908152600460205260409020546001600160a01b031690565b60006104fd826107dc565b9050806001600160a01b0316836001600160a01b031614156105315760405162461bcd60e51b81526004016104cd9061213a565b806001600160a01b0316610543610df2565b6001600160a01b0316148061055f575061055f816103bc610df2565b61057b5760405162461bcd60e51b81526004016104cd90611ed1565b6105858383610df6565b505050565b60085490565b6105a161059b610df2565b82610e64565b6105bd5760405162461bcd60e51b81526004016104cd9061217b565b610585838383610ee9565b60006105d383610883565b82106105f15760405162461bcd60e51b81526004016104cd90611cf0565b506001600160a01b03821660009081526006602090815260408083208484529091529020545b92915050565b61058583838360405180602001604052806000815250610bf5565b600061064261058a565b82106106605760405162461bcd60e51b81526004016104cd906121cc565b6008828154811061068157634e487b7160e01b600052603260045260246000fd5b90600052602060002001549050919050565b600061069d610df2565b6001600160a01b03166106ae6109ac565b6001600160a01b0316146106d45760405162461bcd60e51b81526004016104cd90612042565b6000838152600e60205260408120906106ec82611016565b116107095760405162461bcd60e51b81526004016104cd90612243565b600061072861071783611016565b6107219086612375565b8390611021565b90506107348682610811565b9695505050505050565b610746610df2565b6001600160a01b03166107576109ac565b6001600160a01b03161461077d5760405162461bcd60e51b81526004016104cd90612042565b610788600b82611034565b6107a45760405162461bcd60e51b81526004016104cd90612218565b6107af600b82611040565b506000818152600d60209081526040808320600201548352600e90915290206107d89082611040565b5050565b6000818152600260205260408120546001600160a01b03168061040c5760405162461bcd60e51b81526004016104cd90611f78565b600061081b610df2565b6001600160a01b031661082c6109ac565b6001600160a01b0316146108525760405162461bcd60e51b81526004016104cd90612042565b6010600081546108619061235a565b918290555060008181526011602052604090208390559050610617838261104c565b60006001600160a01b0382166108ab5760405162461bcd60e51b81526004016104cd90611f2e565b506001600160a01b031660009081526003602052604090205490565b6108cf610df2565b6001600160a01b03166108e06109ac565b6001600160a01b0316146109065760405162461bcd60e51b81526004016104cd90612042565b600a546040516000916001600160a01b0316907f8be0079c531659141344cd1fd0a4f28419497f9722a3daafe3b4186f6b6457e0908390a3600a80546001600160a01b0319169055565b600061095c600b611016565b905090565b6109696118db565b506000908152601160209081526040808320548352600d825291829020825160608101845281548152600182015492810192909252600201549181019190915290565b600a546001600160a01b031690565b6109c36118db565b600d60006109d2600b85611021565b815260200190815260200160002060405180606001604052908160008201548152602001600182015481526020016002820154815250509050919050565b6060600180546104239061231f565b610a27610df2565b6001600160a01b0316610a386109ac565b6001600160a01b031614610a5e5760405162461bcd60e51b81526004016104cd90612042565b610a69600b84611034565b15610a865760405162461bcd60e51b81526004016104cd9061210f565b610a91600b8461112b565b506040805160608101825284815260208082018581528284018581526000888152600d8452858120945185559151600185015551600290930192909255838252600e905220610ae0908461112b565b50505050565b610aee610df2565b6001600160a01b0316826001600160a01b03161415610b1f5760405162461bcd60e51b81526004016104cd90611e4e565b8060056000610b2c610df2565b6001600160a01b03908116825260208083019390935260409182016000908120918716808252919093529120805460ff191692151592909217909155610b70610df2565b6001600160a01b03167f17307eab39ab6107e8899845ad3d59bd9653f200f220920489ca2b5937696c3183604051610ba89190611c90565b60405180910390a35050565b610bbc6118db565b506000908152600d6020908152604091829020825160608101845281548152600182015492810192909252600201549181019190915290565b610c06610c00610df2565b83610e64565b610c225760405162461bcd60e51b81526004016104cd9061217b565b610ae084848484611137565b60606000610c3b8361116a565b90506000610c4884610961565b905081610c54856111ec565b610c6183602001516111ec565b610c6e84604001516111ec565b604051602001610c819493929190611bd1565b60405160208183030381529060405292505050919050565b6001600160a01b03918216600090815260056020908152604080832093909416825291909152205460ff1690565b600061040c600b83611021565b610cdc610df2565b6001600160a01b0316610ced6109ac565b6001600160a01b031614610d135760405162461bcd60e51b81526004016104cd90612042565b6001600160a01b038116610d395760405162461bcd60e51b81526004016104cd90611d8d565b600a546040516001600160a01b038084169216907f8be0079c531659141344cd1fd0a4f28419497f9722a3daafe3b4186f6b6457e090600090a3600a80546001600160a01b0319166001600160a01b0392909216919091179055565b60006001600160e01b031982166380ac58cd60e01b1480610dc657506001600160e01b03198216635b5e139f60e01b145b8061040c575061040c82611307565b6000908152600260205260409020546001600160a01b0316151590565b3390565b600081815260046020526040902080546001600160a01b0319166001600160a01b0384169081179091558190610e2b826107dc565b6001600160a01b03167f8c5be1e5ebec7d5bd14f71427d1e84f3dd0314c0f7b2291e5b200ac8c7c3b92560405160405180910390a45050565b6000610e6f82610dd5565b610e8b5760405162461bcd60e51b81526004016104cd90611e85565b6000610e96836107dc565b9050806001600160a01b0316846001600160a01b03161480610ed15750836001600160a01b0316610ec6846104a6565b6001600160a01b0316145b80610ee15750610ee18185610c99565b949350505050565b826001600160a01b0316610efc826107dc565b6001600160a01b031614610f225760405162461bcd60e51b81526004016104cd90612077565b6001600160a01b038216610f485760405162461bcd60e51b81526004016104cd90611e0a565b610f53838383611320565b610f5e600082610df6565b6001600160a01b0383166000908152600360205260408120805460019290610f879084906122dc565b90915550506001600160a01b0382166000908152600360205260408120805460019290610fb59084906122b0565b909155505060008181526002602052604080822080546001600160a01b0319166001600160a01b0386811691821790925591518493918716917fddf252ad1be2c89b69c2b068fc378daa952ba7f163c4a11628f55a4df523b3ef91a4505050565b600061040c826113a9565b600061102d83836113ad565b9392505050565b600061102d8383611406565b600061102d838361141e565b6001600160a01b0382166110725760405162461bcd60e51b81526004016104cd90611fc1565b61107b81610dd5565b156110985760405162461bcd60e51b81526004016104cd90611dd3565b6110a460008383611320565b6001600160a01b03821660009081526003602052604081208054600192906110cd9084906122b0565b909155505060008181526002602052604080822080546001600160a01b0319166001600160a01b03861690811790915590518392907fddf252ad1be2c89b69c2b068fc378daa952ba7f163c4a11628f55a4df523b3ef908290a45050565b600061102d838361153b565b611142848484610ee9565b61114e84848484611585565b610ae05760405162461bcd60e51b81526004016104cd90611d3b565b606061117582610dd5565b6111915760405162461bcd60e51b81526004016104cd906120c0565b600061119b6116a0565b905060008151116111bb576040518060200160405280600081525061102d565b806111c5846111ec565b6040516020016111d6929190611ba2565b6040516020818303038152906040529392505050565b60608161121157506040805180820190915260018152600360fc1b602082015261040f565b8160005b811561123b57806112258161235a565b91506112349050600a836122c8565b9150611215565b60008167ffffffffffffffff81111561126457634e487b7160e01b600052604160045260246000fd5b6040519080825280601f01601f19166020018201604052801561128e576020820181803683370190505b5090505b8415610ee1576112a36001836122dc565b91506112b0600a86612375565b6112bb9060306122b0565b60f81b8183815181106112de57634e487b7160e01b600052603260045260246000fd5b60200101906001600160f81b031916908160001a905350611300600a866122c8565b9450611292565b6001600160e01b031981166301ffc9a760e01b14919050565b61132b838383610585565b6001600160a01b03831661134757611342816116d7565b61136a565b816001600160a01b0316836001600160a01b03161461136a5761136a838261171b565b6001600160a01b03821661138657611381816117b8565b610585565b826001600160a01b0316826001600160a01b031614610585576105858282611891565b5490565b815460009082106113d05760405162461bcd60e51b81526004016104cd90611cae565b8260000182815481106113f357634e487b7160e01b600052603260045260246000fd5b9060005260206000200154905092915050565b60009081526001919091016020526040902054151590565b600081815260018301602052604081205480156115315760006114426001836122dc565b8554909150600090611456906001906122dc565b9050600086600001828154811061147d57634e487b7160e01b600052603260045260246000fd5b90600052602060002001549050808760000184815481106114ae57634e487b7160e01b600052603260045260246000fd5b6000918252602090912001556114c58360016122b0565b600082815260018901602052604090205586548790806114f557634e487b7160e01b600052603160045260246000fd5b60019003818190600052602060002001600090559055866001016000878152602001908152602001600020600090556001945050505050610617565b6000915050610617565b60006115478383611406565b61157d57508154600181810184556000848152602080822090930184905584548482528286019093526040902091909155610617565b506000610617565b6000611599846001600160a01b03166118d5565b1561169557836001600160a01b031663150b7a026115b5610df2565b8786866040518563ffffffff1660e01b81526004016115d79493929190611c5d565b602060405180830381600087803b1580156115f157600080fd5b505af1925050508015611621575060408051601f3d908101601f1916820190925261161e91810190611b17565b60015b61167b573d80801561164f576040519150601f19603f3d011682016040523d82523d6000602084013e611654565b606091505b5080516116735760405162461bcd60e51b81526004016104cd90611d3b565b805181602001fd5b6001600160e01b031916630a85bd0160e11b149050610ee1565b506001949350505050565b60408051808201909152601a81527f68747470733a2f2f6e66742e62736372756e6e65722e636f6d2f000000000000602082015290565b600880546000838152600960205260408120829055600182018355919091527ff3f7a9fe364faab93b216da50a3214154f22a0a2b415b23a84c8169e8b636ee30155565b6000600161172884610883565b61173291906122dc565b600083815260076020526040902054909150808214611785576001600160a01b03841660009081526006602090815260408083208584528252808320548484528184208190558352600790915290208190555b5060009182526007602090815260408084208490556001600160a01b039094168352600681528383209183525290812055565b6008546000906117ca906001906122dc565b6000838152600960205260408120546008805493945090928490811061180057634e487b7160e01b600052603260045260246000fd5b90600052602060002001549050806008838154811061182f57634e487b7160e01b600052603260045260246000fd5b600091825260208083209091019290925582815260099091526040808220849055858252812055600880548061187557634e487b7160e01b600052603160045260246000fd5b6001900381819060005260206000200160009055905550505050565b600061189c83610883565b6001600160a01b039093166000908152600660209081526040808320868452825280832085905593825260079052919091209190915550565b3b151590565b60405180606001604052806000815260200160008152602001600081525090565b80356001600160a01b038116811461040f57600080fd5b600060208284031215611924578081fd5b61102d826118fc565b6000806040838503121561193f578081fd5b611948836118fc565b9150611956602084016118fc565b90509250929050565b600080600060608486031215611973578081fd5b61197c846118fc565b925061198a602085016118fc565b9150604084013590509250925092565b600080600080608085870312156119af578081fd5b6119b8856118fc565b935060206119c78187016118fc565b935060408601359250606086013567ffffffffffffffff808211156119ea578384fd5b818801915088601f8301126119fd578384fd5b813581811115611a0f57611a0f6123b5565b604051601f8201601f1916810185018381118282101715611a3257611a326123b5565b60405281815283820185018b1015611a48578586fd5b81858501868301379081019093019390935250939692955090935050565b60008060408385031215611a78578182fd5b611a81836118fc565b915060208301358015158114611a95578182fd5b809150509250929050565b60008060408385031215611ab2578182fd5b611abb836118fc565b946020939093013593505050565b600080600060608486031215611add578283fd5b611ae6846118fc565b95602085013595506040909401359392505050565b600060208284031215611b0c578081fd5b813561102d816123cb565b600060208284031215611b28578081fd5b815161102d816123cb565b600060208284031215611b44578081fd5b5035919050565b600080600060608486031215611b5f578283fd5b505081359360208301359350604090920135919050565b60008151808452611b8e8160208601602086016122f3565b601f01601f19169290920160200192915050565b60008351611bb48184602088016122f3565b835190830190611bc88183602088016122f3565b01949350505050565b60008551611be3818460208a016122f3565b8083019050602f60f81b8082528651611c03816001850160208b016122f3565b600192019182018190528551611c20816002850160208a016122f3565b60029201918201528351611c3b8160038401602088016122f3565b016003019695505050505050565b6001600160a01b0391909116815260200190565b6001600160a01b038581168252841660208201526040810183905260806060820181905260009061073490830184611b76565b901515815260200190565b60006020825261102d6020830184611b76565b60208082526022908201527f456e756d657261626c655365743a20696e646578206f7574206f6620626f756e604082015261647360f01b606082015260800190565b6020808252602b908201527f455243373231456e756d657261626c653a206f776e657220696e646578206f7560408201526a74206f6620626f756e647360a81b606082015260800190565b60208082526032908201527f4552433732313a207472616e7366657220746f206e6f6e20455243373231526560408201527131b2b4bb32b91034b6b83632b6b2b73a32b960711b606082015260800190565b60208082526026908201527f4f776e61626c653a206e6577206f776e657220697320746865207a65726f206160408201526564647265737360d01b606082015260800190565b6020808252601c908201527f4552433732313a20746f6b656e20616c7265616479206d696e74656400000000604082015260600190565b60208082526024908201527f4552433732313a207472616e7366657220746f20746865207a65726f206164646040820152637265737360e01b606082015260800190565b60208082526019908201527f4552433732313a20617070726f766520746f2063616c6c657200000000000000604082015260600190565b6020808252602c908201527f4552433732313a206f70657261746f7220717565727920666f72206e6f6e657860408201526b34b9ba32b73a103a37b5b2b760a11b606082015260800190565b60208082526038908201527f4552433732313a20617070726f76652063616c6c6572206973206e6f74206f7760408201527f6e6572206e6f7220617070726f76656420666f7220616c6c0000000000000000606082015260800190565b6020808252602a908201527f4552433732313a2062616c616e636520717565727920666f7220746865207a65604082015269726f206164647265737360b01b606082015260800190565b60208082526029908201527f4552433732313a206f776e657220717565727920666f72206e6f6e657869737460408201526832b73a103a37b5b2b760b91b606082015260800190565b6020808252818101527f4552433732313a206d696e7420746f20746865207a65726f2061646472657373604082015260600190565b6020808252602c908201527f4552433732313a20617070726f76656420717565727920666f72206e6f6e657860408201526b34b9ba32b73a103a37b5b2b760a11b606082015260800190565b6020808252818101527f4f776e61626c653a2063616c6c6572206973206e6f7420746865206f776e6572604082015260600190565b60208082526029908201527f4552433732313a207472616e73666572206f6620746f6b656e2074686174206960408201526839903737ba1037bbb760b91b606082015260800190565b6020808252602f908201527f4552433732314d657461646174613a2055524920717565727920666f72206e6f60408201526e3732bc34b9ba32b73a103a37b5b2b760891b606082015260800190565b602080825260119082015270696420616c72656164792065786973747360781b604082015260600190565b60208082526021908201527f4552433732313a20617070726f76616c20746f2063757272656e74206f776e656040820152603960f91b606082015260800190565b60208082526031908201527f4552433732313a207472616e736665722063616c6c6572206973206e6f74206f6040820152701ddb995c881b9bdc88185c1c1c9bdd9959607a1b606082015260800190565b6020808252602c908201527f455243373231456e756d657261626c653a20676c6f62616c20696e646578206f60408201526b7574206f6620626f756e647360a01b606082015260800190565b6020808252601190820152701a5908191bd95cc81b9bdd08195e1a5cdd607a1b604082015260600190565b60208082526023908201527f746865726520617265206e6f207479706573207769746820746861742072617260408201526269747960e81b606082015260800190565b81518152602080830151908201526040918201519181019190915260600190565b90815260200190565b600082198211156122c3576122c3612389565b500190565b6000826122d7576122d761239f565b500490565b6000828210156122ee576122ee612389565b500390565b60005b8381101561230e5781810151838201526020016122f6565b83811115610ae05750506000910152565b60028104600182168061233357607f821691505b6020821081141561235457634e487b7160e01b600052602260045260246000fd5b50919050565b600060001982141561236e5761236e612389565b5060010190565b6000826123845761238461239f565b500690565b634e487b7160e01b600052601160045260246000fd5b634e487b7160e01b600052601260045260246000fd5b634e487b7160e01b600052604160045260246000fd5b6001600160e01b0319811681146123e157600080fd5b5056fea264697066735822122070d81b9a71bc6446aa25fbad19cacbd281f10b89f09a5fd37312c77924f1789364736f6c63430008000033",
  "immutableReferences": {},
  "source": "// SPDX-License-Identifier: MIT\npragma solidity >=0.6.12;\npragma experimental ABIEncoderV2;\n\nimport \"../oz/utils/structs/EnumerableSet.sol\";\nimport \"../oz/access/Ownable.sol\";\nimport \"../oz/token/ERC721/extensions/ERC721Enumerable.sol\";\n\ncontract RunnerNFT is ERC721Enumerable, Ownable  {\n    \n    using EnumerableSet for EnumerableSet.UintSet;\n    using Strings for uint256;\n    \n    struct Type {\n        uint id;\n        uint bonus;\n        uint rarity;\n    }\n    \n    constructor() ERC721(\"Runner NFT\",\"RunnerNFT\") {} \n    \n    // Token.Type data\n    EnumerableSet.UintSet typeIds;\n    \n    mapping (uint=>Type) typesById;\n    mapping (uint=>EnumerableSet.UintSet) private typeIdsByRarity;\n    mapping (uint=>uint) private mintIndexByTokenId;\n    // Token data\n    uint nextTokenId = 0;\n    mapping (uint=>uint) private typeIdByTokenId;\n    \n    function createToken(address holder, uint typeId) public onlyOwner returns (uint tokenId) {\n        tokenId = ++nextTokenId;\n        typeIdByTokenId[tokenId] = typeId;\n        _mint(holder, tokenId);\n    }\n    \n    function createRandomTokenWithRarity(address holder, uint rarity, uint seed) public onlyOwner returns (uint) {\n        EnumerableSet.UintSet storage filter = typeIdsByRarity[rarity];\n        require(filter.length() > 0, \"there are no types with that rarity\");\n        uint typeId = filter.at(seed % filter.length());\n        return createToken(holder, typeId);\n    }\n    \n    function addType(uint id, uint bonus, uint rarity) public onlyOwner {\n        require(!typeIds.contains(id), \"id already exists\");\n        typeIds.add(id);\n        typesById[id] = Type(id, bonus, rarity);\n        typeIdsByRarity[rarity].add(id);\n    }\n    \n    function removeType(uint id) public onlyOwner {\n        require(typeIds.contains(id), \"id does not exist\");\n        typeIds.remove(id);\n        typeIdsByRarity[typesById[id].rarity].remove(id);\n    }\n    \n    function getTypeById(uint id) public view returns (Type memory) { return typesById[id]; }\n    \n    function getTypeByTokenId(uint id) public view returns (Type memory) { return typesById[typeIdByTokenId[id]]; }\n    \n    \n    /*\n        These 3 functions help to iterate through all types\n    */\n    \n    function getTypeCount() public view returns (uint) {\n        return typeIds.length();\n    }\n    \n    function getTypeIdAtIndex(uint index) public view returns (uint) {\n        return typeIds.at(index);\n    }\n    \n    function getTypeAtIndex(uint index) public view returns (Type memory tokenType) {\n        tokenType = typesById[typeIds.at(index)];\n    }\n    \n    \n    /*\n        The following functions override ERC721's in order to provide specialized\n        name and symbol according to our token type.\n    */\n    \n    /*\n        The default uri is to combine _baseURI with tokenId, e.g., \"https://token-data.super-awesome-project.tld/{tokenId}\"\n        If our server cannot read the block chain in order to look up the Token.Type data, we will need to override another\n        function to also supply the Token.Type information.\n    */\n    function _baseURI() internal view virtual override returns (string memory) {\n        return \"https://nft.bscrunner.com/\";\n    }\n    \n    function tokenURI(uint256 tokenId) public view virtual override returns (string memory) {\n        string memory baseURI = ERC721.tokenURI(tokenId);\n        Type memory tokenType = getTypeByTokenId(tokenId);\n        return string(abi.encodePacked(\n            baseURI, \"/\",\n            tokenId.toString(), \"/\",\n            tokenType.bonus.toString(), \"/\",\n            tokenType.rarity.toString()));\n    }\n    \n}",
  "sourcePath": "/Users/alexei120991/Documents/Project/RUNNER/alex/runner-manager/contracts/RunnerNFT.sol",
  "compiler": {
    "name": "solc",
    "version": "0.8.0+commit.c7dfd78e.Emscripten.clang"
  },
  "schemaVersion": "3.3.4",
  "updatedAt": "2021-03-14T15:07:34.283Z",
  "networkType": "ethereum",
  "devdoc": {
    "kind": "dev",
    "methods": {
      "approve(address,uint256)": {
        "details": "See {IERC721-approve}."
      },
      "balanceOf(address)": {
        "details": "See {IERC721-balanceOf}."
      },
      "getApproved(uint256)": {
        "details": "See {IERC721-getApproved}."
      },
      "isApprovedForAll(address,address)": {
        "details": "See {IERC721-isApprovedForAll}."
      },
      "name()": {
        "details": "See {IERC721Metadata-name}."
      },
      "owner()": {
        "details": "Returns the address of the current owner."
      },
      "ownerOf(uint256)": {
        "details": "See {IERC721-ownerOf}."
      },
      "renounceOwnership()": {
        "details": "Leaves the contract without owner. It will not be possible to call `onlyOwner` functions anymore. Can only be called by the current owner. NOTE: Renouncing ownership will leave the contract without an owner, thereby removing any functionality that is only available to the owner."
      },
      "safeTransferFrom(address,address,uint256)": {
        "details": "See {IERC721-safeTransferFrom}."
      },
      "safeTransferFrom(address,address,uint256,bytes)": {
        "details": "See {IERC721-safeTransferFrom}."
      },
      "setApprovalForAll(address,bool)": {
        "details": "See {IERC721-setApprovalForAll}."
      },
      "supportsInterface(bytes4)": {
        "details": "See {IERC165-supportsInterface}."
      },
      "symbol()": {
        "details": "See {IERC721Metadata-symbol}."
      },
      "tokenByIndex(uint256)": {
        "details": "See {IERC721Enumerable-tokenByIndex}."
      },
      "tokenOfOwnerByIndex(address,uint256)": {
        "details": "See {IERC721Enumerable-tokenOfOwnerByIndex}."
      },
      "tokenURI(uint256)": {
        "details": "See {IERC721Metadata-tokenURI}."
      },
      "totalSupply()": {
        "details": "See {IERC721Enumerable-totalSupply}."
      },
      "transferFrom(address,address,uint256)": {
        "details": "See {IERC721-transferFrom}."
      },
      "transferOwnership(address)": {
        "details": "Transfers ownership of the contract to a new account (`newOwner`). Can only be called by the current owner."
      }
    },
    "version": 1
  },
  "userdoc": {
    "kind": "user",
    "methods": {},
    "version": 1
  }
}