{
  "contractName": "RunnerManager",
  "abi": [
    {
      "inputs": [
        {
          "internalType": "contract IERC20",
          "name": "e",
          "type": "address"
        },
        {
          "internalType": "contract IRunnerToken",
          "name": "r",
          "type": "address"
        },
        {
          "internalType": "contract RunnerNFT",
          "name": "n",
          "type": "address"
        }
      ],
      "stateMutability": "nonpayable",
      "type": "constructor"
    },
    {
      "anonymous": false,
      "inputs": [
        {
          "indexed": true,
          "internalType": "address",
          "name": "previousOwner",
          "type": "address"
        },
        {
          "indexed": true,
          "internalType": "address",
          "name": "newOwner",
          "type": "address"
        }
      ],
      "name": "OwnershipTransferred",
      "type": "event"
    },
    {
      "anonymous": false,
      "inputs": [
        {
          "indexed": false,
          "internalType": "address",
          "name": "buyer",
          "type": "address"
        },
        {
          "indexed": false,
          "internalType": "uint256",
          "name": "numPacks",
          "type": "uint256"
        }
      ],
      "name": "Purchased",
      "type": "event"
    },
    {
      "anonymous": false,
      "inputs": [
        {
          "indexed": false,
          "internalType": "address",
          "name": "buyer",
          "type": "address"
        }
      ],
      "name": "RewardRedeemed",
      "type": "event"
    },
    {
      "inputs": [],
      "name": "energyToken",
      "outputs": [
        {
          "internalType": "contract IERC20",
          "name": "",
          "type": "address"
        }
      ],
      "stateMutability": "view",
      "type": "function",
      "constant": true
    },
    {
      "inputs": [],
      "name": "nft",
      "outputs": [
        {
          "internalType": "contract RunnerNFT",
          "name": "",
          "type": "address"
        }
      ],
      "stateMutability": "view",
      "type": "function",
      "constant": true
    },
    {
      "inputs": [],
      "name": "owner",
      "outputs": [
        {
          "internalType": "address",
          "name": "",
          "type": "address"
        }
      ],
      "stateMutability": "view",
      "type": "function",
      "constant": true
    },
    {
      "inputs": [
        {
          "internalType": "address",
          "name": "",
          "type": "address"
        }
      ],
      "name": "purchases",
      "outputs": [
        {
          "internalType": "uint256",
          "name": "numPacks",
          "type": "uint256"
        },
        {
          "components": [
            {
              "internalType": "uint256",
              "name": "blockNumber",
              "type": "uint256"
            }
          ],
          "internalType": "struct Random.Seed",
          "name": "seed",
          "type": "tuple"
        },
        {
          "internalType": "uint256",
          "name": "energyReward",
          "type": "uint256"
        },
        {
          "internalType": "uint256",
          "name": "runnerReward",
          "type": "uint256"
        },
        {
          "internalType": "uint256",
          "name": "nftSeed",
          "type": "uint256"
        },
        {
          "internalType": "uint256",
          "name": "nftIds",
          "type": "uint256"
        },
        {
          "internalType": "uint256",
          "name": "rand",
          "type": "uint256"
        }
      ],
      "stateMutability": "view",
      "type": "function",
      "constant": true
    },
    {
      "inputs": [],
      "name": "renounceOwnership",
      "outputs": [],
      "stateMutability": "nonpayable",
      "type": "function"
    },
    {
      "inputs": [],
      "name": "runnerToken",
      "outputs": [
        {
          "internalType": "contract IRunnerToken",
          "name": "",
          "type": "address"
        }
      ],
      "stateMutability": "view",
      "type": "function",
      "constant": true
    },
    {
      "inputs": [
        {
          "internalType": "address",
          "name": "newOwner",
          "type": "address"
        }
      ],
      "name": "transferOwnership",
      "outputs": [],
      "stateMutability": "nonpayable",
      "type": "function"
    },
    {
      "inputs": [],
      "name": "emergencyWithdraw",
      "outputs": [],
      "stateMutability": "nonpayable",
      "type": "function"
    },
    {
      "inputs": [
        {
          "internalType": "uint256",
          "name": "nftId",
          "type": "uint256"
        },
        {
          "internalType": "uint256",
          "name": "bonus",
          "type": "uint256"
        },
        {
          "internalType": "uint256",
          "name": "rarity",
          "type": "uint256"
        }
      ],
      "name": "addNFTType",
      "outputs": [],
      "stateMutability": "nonpayable",
      "type": "function"
    },
    {
      "inputs": [
        {
          "internalType": "address",
          "name": "newOwner",
          "type": "address"
        }
      ],
      "name": "transferRunnerOwnerTo",
      "outputs": [],
      "stateMutability": "nonpayable",
      "type": "function"
    },
    {
      "inputs": [
        {
          "internalType": "address",
          "name": "newOwner",
          "type": "address"
        }
      ],
      "name": "transferNFTOwnerTo",
      "outputs": [],
      "stateMutability": "nonpayable",
      "type": "function"
    },
    {
      "inputs": [
        {
          "internalType": "contract IERC20",
          "name": "e",
          "type": "address"
        }
      ],
      "name": "setEnergyToken",
      "outputs": [],
      "stateMutability": "nonpayable",
      "type": "function"
    },
    {
      "inputs": [
        {
          "internalType": "uint256",
          "name": "amount",
          "type": "uint256"
        }
      ],
      "name": "exchange",
      "outputs": [],
      "stateMutability": "nonpayable",
      "type": "function"
    },
    {
      "inputs": [
        {
          "internalType": "uint256",
          "name": "numPacks",
          "type": "uint256"
        }
      ],
      "name": "buy",
      "outputs": [],
      "stateMutability": "nonpayable",
      "type": "function"
    },
    {
      "inputs": [],
      "name": "redeem",
      "outputs": [],
      "stateMutability": "nonpayable",
      "type": "function"
    },
    {
      "inputs": [],
      "name": "generateReward",
      "outputs": [],
      "stateMutability": "nonpayable",
      "type": "function"
    },
    {
      "inputs": [
        {
          "components": [
            {
              "internalType": "uint256",
              "name": "winFactor",
              "type": "uint256"
            },
            {
              "internalType": "uint256",
              "name": "packPrice",
              "type": "uint256"
            },
            {
              "internalType": "uint256",
              "name": "maxPacksPerPurchase",
              "type": "uint256"
            },
            {
              "internalType": "uint256",
              "name": "runnerPerEnergy",
              "type": "uint256"
            }
          ],
          "internalType": "struct RunnerManager.Config",
          "name": "_config",
          "type": "tuple"
        }
      ],
      "name": "setConfig",
      "outputs": [],
      "stateMutability": "nonpayable",
      "type": "function"
    },
    {
      "inputs": [],
      "name": "getConfig",
      "outputs": [
        {
          "components": [
            {
              "internalType": "uint256",
              "name": "winFactor",
              "type": "uint256"
            },
            {
              "internalType": "uint256",
              "name": "packPrice",
              "type": "uint256"
            },
            {
              "internalType": "uint256",
              "name": "maxPacksPerPurchase",
              "type": "uint256"
            },
            {
              "internalType": "uint256",
              "name": "runnerPerEnergy",
              "type": "uint256"
            }
          ],
          "internalType": "struct RunnerManager.Config",
          "name": "",
          "type": "tuple"
        }
      ],
      "stateMutability": "view",
      "type": "function",
      "constant": true
    }
  ],
  "bytecode": "0x61010060405260646080819052600a60a0819052600560c081905260e082905291825560068190556007919091556008553480156200003d57600080fd5b5060405162001a2838038062001a288339810160408190526200006091620000fd565b60006200006c620000f9565b600080546001600160a01b0319166001600160a01b0383169081178255604051929350917f8be0079c531659141344cd1fd0a4f28419497f9722a3daafe3b4186f6b6457e0908290a350600180546001600160a01b039485166001600160a01b03199182161790915560028054938516938216939093179092556003805491909316911617905562000169565b3390565b60008060006060848603121562000112578283fd5b83516200011f8162000150565b6020850151909350620001328162000150565b6040850151909250620001458162000150565b809150509250925092565b6001600160a01b03811681146200016657600080fd5b50565b6118af80620001796000396000f3fe608060405234801561001057600080fd5b50600436106101165760003560e01c8063ab2e9e0f116100a2578063c55c66ca11610071578063c55c66ca146101fd578063d96a094a14610205578063db2e21bc14610218578063f2fde38b14610220578063f6dd0d5b1461023357610116565b8063ab2e9e0f146101c5578063ace4a227146101d8578063be040fb0146101e0578063c3f909d4146101e857610116565b80634ec7fb81116100e95780634ec7fb8114610174578063535565591461017c578063715018a61461018f578063842a77d3146101975780638da5cb5b146101bd57610116565b806302c750d81461011b5780631f44305a146101305780634596a15a1461014357806347ccca0214610156575b600080fd5b61012e61012936600461129d565b610246565b005b61012e61013e3660046112f1565b6102b0565b61012e61015136600461137a565b61030d565b61015e6103b7565b60405161016b91906113ca565b60405180910390f35b61015e6103c6565b61012e61018a366004611362565b6103d5565b61012e6104d2565b6101aa6101a536600461129d565b61055b565b60405161016b9796959493929190611749565b61015e6105a2565b61012e6101d336600461129d565b6105b1565b61012e610655565b61012e610871565b6101f0610b7e565b60405161016b919061171e565b61015e610bb3565b61012e610213366004611362565b610bc2565b61012e610d77565b61012e61022e36600461129d565b610e54565b61012e61024136600461129d565b610f14565b61024e610f83565b6001600160a01b031661025f6105a2565b6001600160a01b03161461028e5760405162461bcd60e51b8152600401610285906115a3565b60405180910390fd5b600180546001600160a01b0319166001600160a01b0392909216919091179055565b6102b8610f83565b6001600160a01b03166102c96105a2565b6001600160a01b0316146102ef5760405162461bcd60e51b8152600401610285906115a3565b80516005556020810151600655604081015160075560600151600855565b610315610f83565b6001600160a01b03166103266105a2565b6001600160a01b03161461034c5760405162461bcd60e51b8152600401610285906115a3565b600354604051634e7f5b6960e11b81526001600160a01b0390911690639cfeb6d29061038090869086908690600401611778565b600060405180830381600087803b15801561039a57600080fd5b505af11580156103ae573d6000803e3d6000fd5b50505050505050565b6003546001600160a01b031681565b6001546001600160a01b031681565b6002546008546001600160a01b03909116906340c10f199033906103f990856117ba565b6040518363ffffffff1660e01b8152600401610416929190611402565b600060405180830381600087803b15801561043057600080fd5b505af1158015610444573d6000803e3d6000fd5b50506001546040516323b872dd60e01b81526001600160a01b0390911692506323b872dd915061047c903390309086906004016113de565b602060405180830381600087803b15801561049657600080fd5b505af11580156104aa573d6000803e3d6000fd5b505050506040513d601f19601f820116820180604052508101906104ce91906112b9565b5050565b6104da610f83565b6001600160a01b03166104eb6105a2565b6001600160a01b0316146105115760405162461bcd60e51b8152600401610285906115a3565b600080546040516001600160a01b03909116907f8be0079c531659141344cd1fd0a4f28419497f9722a3daafe3b4186f6b6457e0908390a3600080546001600160a01b0319169055565b600460208181526000928352604092839020805484519283019094526001810154825260028101546003820154938201546005830154600690930154939491939192909187565b6000546001600160a01b031690565b6105b9610f83565b6001600160a01b03166105ca6105a2565b6001600160a01b0316146105f05760405162461bcd60e51b8152600401610285906115a3565b60025460405163f2fde38b60e01b81526001600160a01b039091169063f2fde38b906106209084906004016113ca565b600060405180830381600087803b15801561063a57600080fd5b505af115801561064e573d6000803e3d6000fd5b5050505050565b33600090815260046020526040902080546106825760405162461bcd60e51b815260040161028590611575565b60408051602081019091526001820154815261069d90610f87565b6106b95760405162461bcd60e51b815260040161028590611575565b60006106c782600101610f8d565b905060006106d8620186a083611824565b600684018190559050600080806106f0606485611824565b90506000606461070081876117a6565b61070a9190611824565b9050601482111561074057610720600a83611824565b61072b90600161178e565b61073d90670de0b6b3a76400006117ba565b92505b60055487546064919061075390866117ba565b61075d91906117ba565b61076791906117a6565b6003880155605a8111156107bc57600a6107818183611824565b61078c90600161178e565b6006546107a190674563918244f400006117ba565b6107ab91906117ba565b6107b591906117a6565b9350610809565b6014811115610809576003600a6107d38184611824565b6006546107e890670de0b6b3a76400006117ba565b6107f291906117ba565b6107fc91906117a6565b61080691906117a6565b93505b60085461081690856117a6565b600554885491955060649161082b90876117ba565b61083591906117ba565b61083f91906117a6565b6002880155670de0b6b3a764000061085687610ff8565b6108609190611824565b876004018190555050505050505050565b336000908152600460205260409020805461089e5760405162461bcd60e51b815260040161028590611575565b6040805160208101909152600182015481526108b990610f87565b6108d55760405162461bcd60e51b815260040161028590611575565b6108dd610655565b6003810154156109505760025460038201546040516340c10f1960e01b81526001600160a01b03909216916340c10f199161091d91339190600401611402565b600060405180830381600087803b15801561093757600080fd5b505af115801561094b573d6000803e3d6000fd5b505050505b600281015415610a085760028101546001546040516370a0823160e01b81526000916001600160a01b0316906370a08231906109909030906004016113ca565b60206040518083038186803b1580156109a857600080fd5b505afa1580156109bc573d6000803e3d6000fd5b505050506040513d601f19601f820116820180604052508101906109e091906112d9565b9050818110156109ee578091505b600154610a05906001600160a01b0316338461106d565b50505b60048101546000600583018190555b8254811015610b3d576000610a2e6103e884611824565b9050610334811115610b1d5760016103e7821415610a4e57506004610a6e565b6103d4821115610a6057506003610a6e565b6103ac821115610a6e575060025b60035460405163587c781d60e01b81526000916001600160a01b03169063587c781d90610aa39033908690889060040161141b565b602060405180830381600087803b158015610abd57600080fd5b505af1158015610ad1573d6000803e3d6000fd5b505050506040513d601f19601f82011682018060405250810190610af591906112d9565b9050808660050154620186a0610b0b91906117ba565b610b15919061178e565b600587015550505b610b296103e8846117a6565b92505080610b3690611809565b9050610a17565b50600082556040517f2f00e5a58a043ea9d5d2724a9b888571b883ca513b06f0d3a777587896e1e9cf90610b729033906113ca565b60405180910390a15050565b610b86611275565b50604080516080810182526005548152600654602082015260075491810191909152600854606082015290565b6002546001600160a01b031681565b33600090815260046020526040902081610bee5760405162461bcd60e51b8152600401610285906115d8565b805415610c0d5760405162461bcd60e51b815260040161028590611654565b600754821115610c2f5760405162461bcd60e51b81526004016102859061146f565b600654600090610c3f90846117ba565b610c5190670de0b6b3a76400006117ba565b600254604051632770a7eb60e21b81529192506001600160a01b031690639dc29fac90610c849033908590600401611402565b600060405180830381600087803b158015610c9e57600080fd5b505af1158015610cb2573d6000803e3d6000fd5b50506040805160e0810182528681528151602081810184524382528083019182526000838501818152606085018281526080860183815260a0870184815260c0880185815233808752600497889052958a90209851895596515160018901559251600288015590516003870155519285019290925590516005840155905160069092019190915590517fa512fb2532ca8587f236380171326ebb69670e86a2ba0c4412a3fcca4c3ada9b9350610d6a92508690611402565b60405180910390a1505050565b610d7f610f83565b6001600160a01b0316610d906105a2565b6001600160a01b031614610db65760405162461bcd60e51b8152600401610285906115a3565b6001546040516370a0823160e01b81526000916001600160a01b0316906370a0823190610de79030906004016113ca565b60206040518083038186803b158015610dff57600080fd5b505afa158015610e13573d6000803e3d6000fd5b505050506040513d601f19601f82011682018060405250810190610e3791906112d9565b600154909150610e51906001600160a01b0316338361106d565b50565b610e5c610f83565b6001600160a01b0316610e6d6105a2565b6001600160a01b031614610e935760405162461bcd60e51b8152600401610285906115a3565b6001600160a01b038116610eb95760405162461bcd60e51b8152600401610285906114e9565b600080546040516001600160a01b03808516939216917f8be0079c531659141344cd1fd0a4f28419497f9722a3daafe3b4186f6b6457e091a3600080546001600160a01b0319166001600160a01b0392909216919091179055565b610f1c610f83565b6001600160a01b0316610f2d6105a2565b6001600160a01b031614610f535760405162461bcd60e51b8152600401610285906115a3565b60035460405163f2fde38b60e01b81526001600160a01b039091169063f2fde38b906106209084906004016113ca565b3390565b51431190565b604080516020810190915281548152600090610fa8906110c8565b610fc45760405162461bcd60e51b8152600401610285906114b2565b81544311610fe45760405162461bcd60e51b81526004016102859061160f565b8154610ff190600161178e565b4092915050565b600060028260405160200161100d91906113a5565b60408051601f1981840301815290829052611027916113ae565b602060405180830381855afa158015611044573d6000803e3d6000fd5b5050506040513d601f19601f8201168201806040525081019061106791906112d9565b92915050565b6110c38363a9059cbb60e01b848460405160240161108c929190611402565b60408051601f198184030181529190526020810180516001600160e01b03166001600160e01b0319909316929092179091526110ce565b505050565b51151590565b6000611123826040518060400160405280602081526020017f5361666545524332303a206c6f772d6c6576656c2063616c6c206661696c6564815250856001600160a01b031661115d9092919063ffffffff16565b8051909150156110c3578080602001905181019061114191906112b9565b6110c35760405162461bcd60e51b8152600401610285906116d4565b606061116c8484600085611176565b90505b9392505050565b6060824710156111985760405162461bcd60e51b81526004016102859061152f565b6111a185611236565b6111bd5760405162461bcd60e51b81526004016102859061169d565b600080866001600160a01b031685876040516111d991906113ae565b60006040518083038185875af1925050503d8060008114611216576040519150601f19603f3d011682016040523d82523d6000602084013e61121b565b606091505b509150915061122b82828661123c565b979650505050505050565b3b151590565b6060831561124b57508161116f565b82511561125b5782518084602001fd5b8160405162461bcd60e51b8152600401610285919061143c565b6040518060800160405280600081526020016000815260200160008152602001600081525090565b6000602082840312156112ae578081fd5b813561116f81611864565b6000602082840312156112ca578081fd5b8151801515811461116f578182fd5b6000602082840312156112ea578081fd5b5051919050565b600060808284031215611302578081fd5b6040516080810181811067ffffffffffffffff8211171561133157634e487b7160e01b83526041600452602483fd5b8060405250823581526020830135602082015260408301356040820152606083013560608201528091505092915050565b600060208284031215611373578081fd5b5035919050565b60008060006060848603121561138e578182fd5b505081359360208301359350604090920135919050565b90815260200190565b600082516113c08184602087016117d9565b9190910192915050565b6001600160a01b0391909116815260200190565b6001600160a01b039384168152919092166020820152604081019190915260600190565b6001600160a01b03929092168252602082015260400190565b6001600160a01b039390931683526020830191909152604082015260600190565b600060208252825180602084015261145b8160408501602087016117d9565b601f01601f19169190910160400192915050565b60208082526023908201527f6578636565646564206d6178696d756d207061636b732070657220707572636860408201526261736560e81b606082015260800190565b60208082526017908201527f53656564206973206e6f7420696e697469616c697a6564000000000000000000604082015260600190565b60208082526026908201527f4f776e61626c653a206e6577206f776e657220697320746865207a65726f206160408201526564647265737360d01b606082015260800190565b60208082526026908201527f416464726573733a20696e73756666696369656e742062616c616e636520666f6040820152651c8818d85b1b60d21b606082015260800190565b6020808252601490820152731c1d5c98da185cd9481c1858dadcc8199a5c9cdd60621b604082015260600190565b6020808252818101527f4f776e61626c653a2063616c6c6572206973206e6f7420746865206f776e6572604082015260600190565b6020808252601e908201527f6e756d5061636b732073686f756c64206265206d6f7265207468616e20300000604082015260600190565b60208082526025908201527f57616974206f6e65206d6f726520626c6f636b20746f206f70656e20746869736040820152640814d9595960da1b606082015260800190565b60208082526029908201527f6f70656e207061636b73206265666f7265206d616b696e6720616e6f7468657260408201526820707572636861736560b81b606082015260800190565b6020808252601d908201527f416464726573733a2063616c6c20746f206e6f6e2d636f6e7472616374000000604082015260600190565b6020808252602a908201527f5361666545524332303a204552433230206f7065726174696f6e20646964206e6040820152691bdd081cdd58d8d9595960b21b606082015260800190565b8151815260208083015190820152604080830151908201526060918201519181019190915260800190565b9687529451602087015260408601939093526060850191909152608084015260a083015260c082015260e00190565b9283526020830191909152604082015260600190565b600082198211156117a1576117a1611838565b500190565b6000826117b5576117b561184e565b500490565b60008160001904831182151516156117d4576117d4611838565b500290565b60005b838110156117f45781810151838201526020016117dc565b83811115611803576000848401525b50505050565b600060001982141561181d5761181d611838565b5060010190565b6000826118335761183361184e565b500690565b634e487b7160e01b600052601160045260246000fd5b634e487b7160e01b600052601260045260246000fd5b6001600160a01b0381168114610e5157600080fdfea264697066735822122064236420f1caeb36d9c9716a048495ac0a88c4f554c63833aea2e7e9c1040fd464736f6c63430008000033",
  "immutableReferences": {},
  "source": "// SPDX-License-Identifier: MIT\npragma solidity >=0.8.0;\npragma experimental ABIEncoderV2;\n\nimport \"../oz/utils/structs/EnumerableSet.sol\";\nimport \"../oz/access/Ownable.sol\";\nimport \"./RunnerNFT.sol\";\nimport \"./Random.sol\";\nimport \"../oz/token/ERC20/ERC20.sol\";\nimport \"../oz/token/ERC20/IERC20.sol\";\nimport \"../oz/token/ERC20/utils/SafeERC20.sol\";\n\ninterface IRunnerToken is IERC20 {\n    function transferOwnership(address newOwner) external;\n    function mint(address _to, uint256 _amount) external;\n    function burn(address _to, uint256 _amount) external;\n}\n\ncontract RunnerManager is Ownable {\n    \n    using Random for Random.Seed;\n    using SafeERC20 for IERC20;\n    \n    struct Config {\n        uint winFactor;\n        uint packPrice;\n        uint maxPacksPerPurchase;\n        uint runnerPerEnergy;\n    }\n    \n    struct Purchase {\n        uint numPacks;\n        Random.Seed seed;\n        uint256 energyReward;\n        uint256 runnerReward;\n        uint nftSeed;\n        uint nftIds;\n        uint rand;\n    }\n    \n    event RewardRedeemed(address buyer);\n    event Purchased(address buyer, uint numPacks);\n\n    IERC20 public energyToken;\n    IRunnerToken public runnerToken;\n    RunnerNFT public nft;\n    \n    mapping(address=>Purchase) public purchases;\n    \n    Config config = Config(100, 10, 5, 10);\n    \n    constructor(IERC20 e, IRunnerToken r, RunnerNFT n) {\n        energyToken = e;\n        runnerToken = r;\n        nft = n;\n    }\n\n    //owner methods\n    function emergencyWithdraw() public onlyOwner {\n        uint amount = energyToken.balanceOf(address(this));\n        energyToken.safeTransfer(msg.sender, amount);\n    }\n\n    function addNFTType(uint nftId, uint bonus, uint rarity) public onlyOwner {\n        nft.addType(nftId, bonus, rarity);\n    }\n\n    function transferRunnerOwnerTo(address newOwner) public onlyOwner {\n        runnerToken.transferOwnership(newOwner);\n    }\n    \n    function transferNFTOwnerTo(address newOwner) public onlyOwner {\n        nft.transferOwnership(newOwner);\n    }\n    \n    function setEnergyToken(IERC20 e) public onlyOwner {\n         energyToken = e;\n    }\n    \n    //Main functionality\n    function exchange(uint amount) public {\n        runnerToken.mint(msg.sender, amount * config.runnerPerEnergy);\n        energyToken.transferFrom(msg.sender, address(this), amount);\n    }\n    \n    function buy(uint numPacks) public {\n        Purchase storage purchase = purchases[msg.sender];\n        require(numPacks > 0, \"numPacks should be more than 0\");\n        require(purchase.numPacks == 0, \"open packs before making another purchase\");\n        require(numPacks <= config.maxPacksPerPurchase, \"exceeded maximum packs per purchase\");\n        \n        uint price = numPacks * config.packPrice * 1e18;\n        \n        runnerToken.burn(msg.sender, price);\n        \n        purchases[msg.sender] = Purchase(numPacks, Random.Seed(block.number), 0, 0, 0, 0, 0);\n        \n        emit Purchased(msg.sender, numPacks);\n    }\n    \n    function redeem() public {\n        Purchase storage purchase = purchases[msg.sender];\n        \n        require(purchase.numPacks > 0, \"purchase packs first\");\n        require(purchase.seed.isReady(), \"purchase packs first\");\n        \n        generateReward();\n        \n        if (purchase.runnerReward > 0) {\n            runnerToken.mint(msg.sender, purchase.runnerReward);        \n        }\n        \n        if (purchase.energyReward > 0) {\n            uint energyReward = purchase.energyReward;    \n            uint energyBalance = energyToken.balanceOf(address(this));\n            if (energyBalance < energyReward) {\n                energyReward = energyBalance;\n            }\n            energyToken.safeTransfer(msg.sender, energyReward);\n        }\n    \n        uint nftSeedIterator = purchase.nftSeed;\n        purchase.nftIds = 0;\n        for(uint i = 0; i < purchase.numPacks; ++i) {\n            uint seed = nftSeedIterator % 1000;\n            \n            if (seed > 820) {\n                uint rarity = 1;\n                if (seed == 999) {\n                    rarity = 4;\n                } else\n                if (seed > 980) {\n                    rarity = 3;\n                } else\n                if (seed > 940) {\n                    rarity = 2;\n                }\n            \n            \n                uint tokenId = nft.createRandomTokenWithRarity(msg.sender, rarity, seed);\n                \n                purchase.nftIds = purchase.nftIds * 100000 + tokenId;\n            }\n            nftSeedIterator = nftSeedIterator / 1000;\n        }\n        \n        purchase.numPacks = 0;\n        \n        emit RewardRedeemed(msg.sender);\n    }\n    \n    function generateReward() public {\n        Purchase storage purchase = purchases[msg.sender];\n        require(purchase.numPacks > 0, \"purchase packs first\");\n        require(purchase.seed.isReady(), \"purchase packs first\");\n        \n        bytes32 seed = purchase.seed.get();\n        uint rand = uint(seed) % 100000;        \n        purchase.rand = rand;\n        uint energyReward = 0;\n        uint runnerReward = 0;\n        \n        uint runnerNumber = rand % 100;\n        uint energyNumber = rand / 100 % 100;\n        \n        if (runnerNumber > 20) {\n            runnerReward = 1e18 * (runnerNumber % 10 + 1);\n        }\n        \n        purchase.runnerReward = runnerReward * purchase.numPacks * config.winFactor / 100;\n        \n        if (energyNumber > 90) {\n            energyReward = 1e18 * 5 * config.packPrice * (energyNumber % 10 + 1) / 10;\n        } else \n        if (energyNumber > 20) {\n            energyReward =  1e18 * config.packPrice * (energyNumber % 10) / 10 / 3;\n        }\n        energyReward = energyReward / config.runnerPerEnergy;\n        purchase.energyReward = energyReward * purchase.numPacks * config.winFactor / 100;\n        \n        purchase.nftSeed = uint(rehash(seed)) % 1000000000000000000;    \n    }\n    \n    function rehash(bytes32 b32) internal pure returns (bytes32) {\n      return sha256(abi.encodePacked(b32));\n    }\n    \n    //Configuration\n    \n    function setConfig(Config memory _config) public onlyOwner {\n        config = _config;\n    }\n    \n    function getConfig() external view returns (Config memory) {\n        return config;\n    }\n}",
  "sourcePath": "/Users/alexei120991/Documents/Project/RUNNER/alex/runner-manager/contracts/RunnerManager.sol",
  "compiler": {
    "name": "solc",
    "version": "0.8.0+commit.c7dfd78e.Emscripten.clang"
  },
  "schemaVersion": "3.3.4",
  "updatedAt": "2021-03-14T22:14:33.568Z",
  "networkType": "ethereum",
  "devdoc": {
    "kind": "dev",
    "methods": {
      "owner()": {
        "details": "Returns the address of the current owner."
      },
      "renounceOwnership()": {
        "details": "Leaves the contract without owner. It will not be possible to call `onlyOwner` functions anymore. Can only be called by the current owner. NOTE: Renouncing ownership will leave the contract without an owner, thereby removing any functionality that is only available to the owner."
      },
      "transferOwnership(address)": {
        "details": "Transfers ownership of the contract to a new account (`newOwner`). Can only be called by the current owner."
      }
    },
    "version": 1
  },
  "userdoc": {
    "kind": "user",
    "methods": {},
    "version": 1
  }
}