{
  "contractName": "MasterChef",
  "abi": [
    {
      "inputs": [
        {
          "internalType": "contract EnergyToken",
          "name": "_energy",
          "type": "address"
        },
        {
          "internalType": "contract RunnerToken",
          "name": "_runner",
          "type": "address"
        },
        {
          "internalType": "contract RunnerNFT",
          "name": "_nft",
          "type": "address"
        },
        {
          "internalType": "address",
          "name": "_devaddr",
          "type": "address"
        },
        {
          "internalType": "address",
          "name": "_feeAddress",
          "type": "address"
        },
        {
          "internalType": "uint256",
          "name": "_energyPerBlock",
          "type": "uint256"
        },
        {
          "internalType": "uint256",
          "name": "_startBlock",
          "type": "uint256"
        }
      ],
      "stateMutability": "nonpayable",
      "type": "constructor"
    },
    {
      "anonymous": false,
      "inputs": [
        {
          "indexed": true,
          "internalType": "address",
          "name": "user",
          "type": "address"
        },
        {
          "indexed": true,
          "internalType": "uint256",
          "name": "pid",
          "type": "uint256"
        },
        {
          "indexed": false,
          "internalType": "uint256",
          "name": "amount",
          "type": "uint256"
        }
      ],
      "name": "Deposit",
      "type": "event"
    },
    {
      "anonymous": false,
      "inputs": [
        {
          "indexed": true,
          "internalType": "address",
          "name": "user",
          "type": "address"
        },
        {
          "indexed": true,
          "internalType": "uint256",
          "name": "pid",
          "type": "uint256"
        },
        {
          "indexed": false,
          "internalType": "uint256",
          "name": "amount",
          "type": "uint256"
        }
      ],
      "name": "EmergencyWithdraw",
      "type": "event"
    },
    {
      "anonymous": false,
      "inputs": [
        {
          "indexed": true,
          "internalType": "address",
          "name": "previousOwner",
          "type": "address"
        },
        {
          "indexed": true,
          "internalType": "address",
          "name": "newOwner",
          "type": "address"
        }
      ],
      "name": "OwnershipTransferred",
      "type": "event"
    },
    {
      "anonymous": false,
      "inputs": [
        {
          "indexed": true,
          "internalType": "address",
          "name": "user",
          "type": "address"
        },
        {
          "indexed": true,
          "internalType": "uint256",
          "name": "pid",
          "type": "uint256"
        },
        {
          "indexed": false,
          "internalType": "uint256",
          "name": "amount",
          "type": "uint256"
        }
      ],
      "name": "Withdraw",
      "type": "event"
    },
    {
      "inputs": [],
      "name": "devaddr",
      "outputs": [
        {
          "internalType": "address",
          "name": "",
          "type": "address"
        }
      ],
      "stateMutability": "view",
      "type": "function",
      "constant": true
    },
    {
      "inputs": [],
      "name": "energy",
      "outputs": [
        {
          "internalType": "contract EnergyToken",
          "name": "",
          "type": "address"
        }
      ],
      "stateMutability": "view",
      "type": "function",
      "constant": true
    },
    {
      "inputs": [],
      "name": "energyPerBlock",
      "outputs": [
        {
          "internalType": "uint256",
          "name": "",
          "type": "uint256"
        }
      ],
      "stateMutability": "view",
      "type": "function",
      "constant": true
    },
    {
      "inputs": [],
      "name": "feeAddress",
      "outputs": [
        {
          "internalType": "address",
          "name": "",
          "type": "address"
        }
      ],
      "stateMutability": "view",
      "type": "function",
      "constant": true
    },
    {
      "inputs": [],
      "name": "nft",
      "outputs": [
        {
          "internalType": "contract RunnerNFT",
          "name": "",
          "type": "address"
        }
      ],
      "stateMutability": "view",
      "type": "function",
      "constant": true
    },
    {
      "inputs": [
        {
          "internalType": "address",
          "name": "",
          "type": "address"
        },
        {
          "internalType": "address",
          "name": "",
          "type": "address"
        },
        {
          "internalType": "uint256",
          "name": "",
          "type": "uint256"
        },
        {
          "internalType": "bytes",
          "name": "",
          "type": "bytes"
        }
      ],
      "name": "onERC721Received",
      "outputs": [
        {
          "internalType": "bytes4",
          "name": "",
          "type": "bytes4"
        }
      ],
      "stateMutability": "nonpayable",
      "type": "function"
    },
    {
      "inputs": [],
      "name": "owner",
      "outputs": [
        {
          "internalType": "address",
          "name": "",
          "type": "address"
        }
      ],
      "stateMutability": "view",
      "type": "function",
      "constant": true
    },
    {
      "inputs": [
        {
          "internalType": "uint256",
          "name": "",
          "type": "uint256"
        }
      ],
      "name": "poolInfo",
      "outputs": [
        {
          "internalType": "uint256",
          "name": "totalRunner",
          "type": "uint256"
        },
        {
          "internalType": "uint256",
          "name": "totalSpeed",
          "type": "uint256"
        },
        {
          "internalType": "contract IBEP20",
          "name": "lpToken",
          "type": "address"
        },
        {
          "internalType": "uint256",
          "name": "allocPoint",
          "type": "uint256"
        },
        {
          "internalType": "uint256",
          "name": "lastRewardBlock",
          "type": "uint256"
        },
        {
          "internalType": "uint256",
          "name": "accEnergyPerSpeed",
          "type": "uint256"
        },
        {
          "internalType": "uint16",
          "name": "depositFeeBP",
          "type": "uint16"
        }
      ],
      "stateMutability": "view",
      "type": "function",
      "constant": true
    },
    {
      "inputs": [],
      "name": "renounceOwnership",
      "outputs": [],
      "stateMutability": "nonpayable",
      "type": "function"
    },
    {
      "inputs": [],
      "name": "runner",
      "outputs": [
        {
          "internalType": "contract RunnerToken",
          "name": "",
          "type": "address"
        }
      ],
      "stateMutability": "view",
      "type": "function",
      "constant": true
    },
    {
      "inputs": [],
      "name": "startBlock",
      "outputs": [
        {
          "internalType": "uint256",
          "name": "",
          "type": "uint256"
        }
      ],
      "stateMutability": "view",
      "type": "function",
      "constant": true
    },
    {
      "inputs": [],
      "name": "totalAllocPoint",
      "outputs": [
        {
          "internalType": "uint256",
          "name": "",
          "type": "uint256"
        }
      ],
      "stateMutability": "view",
      "type": "function",
      "constant": true
    },
    {
      "inputs": [
        {
          "internalType": "address",
          "name": "newOwner",
          "type": "address"
        }
      ],
      "name": "transferOwnership",
      "outputs": [],
      "stateMutability": "nonpayable",
      "type": "function"
    },
    {
      "inputs": [
        {
          "internalType": "uint256",
          "name": "",
          "type": "uint256"
        },
        {
          "internalType": "address",
          "name": "",
          "type": "address"
        }
      ],
      "name": "userInfo",
      "outputs": [
        {
          "internalType": "uint256",
          "name": "amount",
          "type": "uint256"
        },
        {
          "internalType": "uint256",
          "name": "rewardDebt",
          "type": "uint256"
        },
        {
          "internalType": "uint256",
          "name": "runner",
          "type": "uint256"
        },
        {
          "internalType": "uint256",
          "name": "speed",
          "type": "uint256"
        },
        {
          "internalType": "uint256",
          "name": "nftId",
          "type": "uint256"
        }
      ],
      "stateMutability": "view",
      "type": "function",
      "constant": true
    },
    {
      "inputs": [],
      "name": "poolLength",
      "outputs": [
        {
          "internalType": "uint256",
          "name": "",
          "type": "uint256"
        }
      ],
      "stateMutability": "view",
      "type": "function",
      "constant": true
    },
    {
      "inputs": [
        {
          "internalType": "uint256",
          "name": "_allocPoint",
          "type": "uint256"
        },
        {
          "internalType": "contract IBEP20",
          "name": "_lpToken",
          "type": "address"
        },
        {
          "internalType": "uint16",
          "name": "_depositFeeBP",
          "type": "uint16"
        },
        {
          "internalType": "bool",
          "name": "_withUpdate",
          "type": "bool"
        }
      ],
      "name": "add",
      "outputs": [],
      "stateMutability": "nonpayable",
      "type": "function"
    },
    {
      "inputs": [
        {
          "internalType": "uint256",
          "name": "_pid",
          "type": "uint256"
        },
        {
          "internalType": "uint256",
          "name": "_allocPoint",
          "type": "uint256"
        },
        {
          "internalType": "uint16",
          "name": "_depositFeeBP",
          "type": "uint16"
        },
        {
          "internalType": "bool",
          "name": "_withUpdate",
          "type": "bool"
        }
      ],
      "name": "set",
      "outputs": [],
      "stateMutability": "nonpayable",
      "type": "function"
    },
    {
      "inputs": [
        {
          "internalType": "uint256",
          "name": "_pid",
          "type": "uint256"
        },
        {
          "internalType": "address",
          "name": "_user",
          "type": "address"
        }
      ],
      "name": "pendingEnergy",
      "outputs": [
        {
          "internalType": "uint256",
          "name": "",
          "type": "uint256"
        }
      ],
      "stateMutability": "view",
      "type": "function",
      "constant": true
    },
    {
      "inputs": [],
      "name": "massUpdatePools",
      "outputs": [],
      "stateMutability": "nonpayable",
      "type": "function"
    },
    {
      "inputs": [
        {
          "internalType": "uint256",
          "name": "_pid",
          "type": "uint256"
        }
      ],
      "name": "updatePool",
      "outputs": [],
      "stateMutability": "nonpayable",
      "type": "function"
    },
    {
      "inputs": [
        {
          "internalType": "uint256",
          "name": "_pid",
          "type": "uint256"
        },
        {
          "internalType": "uint256",
          "name": "_amount",
          "type": "uint256"
        }
      ],
      "name": "deposit",
      "outputs": [],
      "stateMutability": "nonpayable",
      "type": "function"
    },
    {
      "inputs": [
        {
          "internalType": "uint256",
          "name": "_pid",
          "type": "uint256"
        },
        {
          "internalType": "uint256",
          "name": "_amount",
          "type": "uint256"
        }
      ],
      "name": "withdraw",
      "outputs": [],
      "stateMutability": "nonpayable",
      "type": "function"
    },
    {
      "inputs": [
        {
          "internalType": "uint256",
          "name": "_pid",
          "type": "uint256"
        },
        {
          "internalType": "uint256",
          "name": "_amount",
          "type": "uint256"
        }
      ],
      "name": "depositRunner",
      "outputs": [],
      "stateMutability": "nonpayable",
      "type": "function"
    },
    {
      "inputs": [
        {
          "internalType": "uint256",
          "name": "_pid",
          "type": "uint256"
        },
        {
          "internalType": "uint256",
          "name": "_amount",
          "type": "uint256"
        }
      ],
      "name": "withdrawRunner",
      "outputs": [],
      "stateMutability": "nonpayable",
      "type": "function"
    },
    {
      "inputs": [
        {
          "internalType": "uint256",
          "name": "_pid",
          "type": "uint256"
        },
        {
          "internalType": "uint256",
          "name": "_nftId",
          "type": "uint256"
        }
      ],
      "name": "depositNFT",
      "outputs": [],
      "stateMutability": "nonpayable",
      "type": "function"
    },
    {
      "inputs": [
        {
          "internalType": "uint256",
          "name": "_pid",
          "type": "uint256"
        }
      ],
      "name": "withdrawNFT",
      "outputs": [],
      "stateMutability": "nonpayable",
      "type": "function"
    },
    {
      "inputs": [
        {
          "internalType": "uint256",
          "name": "_pid",
          "type": "uint256"
        }
      ],
      "name": "updateSpeed",
      "outputs": [],
      "stateMutability": "nonpayable",
      "type": "function"
    },
    {
      "inputs": [
        {
          "internalType": "uint256",
          "name": "_pid",
          "type": "uint256"
        }
      ],
      "name": "emergencyWithdraw",
      "outputs": [],
      "stateMutability": "nonpayable",
      "type": "function"
    },
    {
      "inputs": [
        {
          "internalType": "address",
          "name": "_devaddr",
          "type": "address"
        }
      ],
      "name": "dev",
      "outputs": [],
      "stateMutability": "nonpayable",
      "type": "function"
    },
    {
      "inputs": [
        {
          "internalType": "address",
          "name": "_feeAddress",
          "type": "address"
        }
      ],
      "name": "setFeeAddress",
      "outputs": [],
      "stateMutability": "nonpayable",
      "type": "function"
    },
    {
      "inputs": [
        {
          "internalType": "uint256",
          "name": "_energyPerBlock",
          "type": "uint256"
        }
      ],
      "name": "updateEmissionRate",
      "outputs": [],
      "stateMutability": "nonpayable",
      "type": "function"
    }
  ],
  "bytecode": "0x608060405260006009553480156200001657600080fd5b506040516200279738038062002797833981016040819052620000399162000155565b60006200004562000151565b600080546001600160a01b0319166001600160a01b0383169081178255604051929350917f8be0079c531659141344cd1fd0a4f28419497f9722a3daafe3b4186f6b6457e0908290a3506001600160a01b038416620000c15760405162461bcd60e51b8152600401620000b890620001e7565b60405180910390fd5b6001600160a01b038316620000ea5760405162461bcd60e51b8152600401620000b890620001e7565b600280546001600160a01b03199081166001600160a01b0398891617909155600180548216988816989098179097556004805488169487169490941790935560068054871692861692909217909155600555600a556003805490931691161790556200022c565b3390565b600080600080600080600060e0888a03121562000170578283fd5b87516200017d8162000213565b6020890151909750620001908162000213565b6040890151909650620001a38162000213565b6060890151909550620001b68162000213565b6080890151909450620001c98162000213565b8093505060a0880151915060c0880151905092959891949750929550565b6020808252601290820152710616464726573732063616e277420626520360741b604082015260600190565b6001600160a01b03811681146200022957600080fd5b50565b61255b806200023c6000396000f3fe608060405234801561001057600080fd5b50600436106101e55760003560e01c80637a8ca6151161010f578063aa849244116100a2578063d49e77cd11610071578063d49e77cd146103c8578063d9638422146103d0578063e2bbb158146103e3578063f2fde38b146103f6576101e5565b8063aa84924414610392578063ab8a02051461039a578063ac0d07b4146103ad578063ae2ac67a146103b5576101e5565b80638da5cb5b116100de5780638da5cb5b1461034057806393f1a40b146103485780639cdb35bc1461036c5780639e7694a81461037f576101e5565b80637a8ca615146102ff57806384e82a33146103075780638705fcd41461031a5780638d88a90e1461032d576101e5565b8063412753581161018757806351eb05a61161015657806351eb05a6146102c95780635312ea8e146102dc578063630b5ba1146102ef578063715018a6146102f7576101e5565b80634127535814610291578063441a3e70146102a657806347ccca02146102b957806348cd4cb1146102c1576101e5565b8063150b7a02116101c3578063150b7a02146102305780631526fe271461025057806317caf6f1146102765780631ae53ac01461027e576101e5565b8063023245d7146101ea578063081e3eda146101ff5780630ba84cd21461021d575b600080fd5b6101fd6101f8366004611f92565b610409565b005b6102076105b5565b6040516102149190612120565b60405180910390f35b6101fd61022b366004611f92565b6105bb565b61024361023e366004611e81565b6105fd565b604051610214919061210b565b61026361025e366004611f92565b61060d565b604051610214979695949392919061244f565b610207610667565b6101fd61028c366004611f92565b61066d565b6102996108bf565b60405161021491906120ba565b6101fd6102b4366004612049565b6108ce565b610299610a11565b610207610a20565b6101fd6102d7366004611f92565b610a26565b6101fd6102ea366004611f92565b610bcd565b6101fd610cad565b6101fd610cd0565b610299610d4f565b6101fd610315366004611ff1565b610d5e565b6101fd610328366004611e65565b610f7b565b6101fd61033b366004611e65565b610fc7565b610299611013565b61035b610356366004611fc2565b611022565b60405161021495949392919061248c565b61020761037a366004611fc2565b61105c565b6101fd61038d366004612049565b6111e1565b610299611310565b6101fd6103a8366004612049565b61131f565b6102076113fb565b6101fd6103c3366004612049565b611401565b610299611571565b6101fd6103de36600461206a565b611580565b6101fd6103f1366004612049565b611688565b6101fd610404366004611e65565b6117b2565b60006007828154811061041857fe5b60009182526020808320858452600882526040808520338652909252922060048101546007909202909201925061046a5760405162461bcd60e51b815260040161046190612426565b60405180910390fd5b61047383610a26565b8054156104c85760006104b482600101546104ae64e8d4a510006104a88760050154876003015461186890919063ffffffff16565b906118a9565b906118eb565b905080156104c6576104c6338261192d565b505b6003546004808301546040516323b872dd60e01b81526001600160a01b03909316926323b872dd926104fe9230923392016120ce565b600060405180830381600087803b15801561051857600080fd5b505af115801561052c573d6000803e3d6000fd5b5050600060048401555061054190508361066d565b61056564e8d4a510006104a88460050154846003015461186890919063ffffffff16565b816001018190555082336001600160a01b03167ff279e6a1f5e320cca91135676d9cb6e44ca8a08c0b88342bcdb1144f6511b56860016040516105a89190612120565b60405180910390a3505050565b60075490565b6105c3611acd565b6000546001600160a01b039081169116146105f05760405162461bcd60e51b815260040161046190612357565b6105f8610cad565b600555565b630a85bd0160e11b949350505050565b6007818154811061061a57fe5b6000918252602090912060079091020180546001820154600283015460038401546004850154600586015460069096015494965092946001600160a01b03909216939092919061ffff1687565b60095481565b60006007828154811061067c57fe5b6000918252602080832085845260088252604080852033865290925281842060079390930201600281015491516370a0823160e01b81529094509192916001600160a01b03909116906370a08231906106d99030906004016120ba565b60206040518083038186803b1580156106f157600080fd5b505afa158015610705573d6000803e3d6000fd5b505050506040513d601f19601f820116820180604052508101906107299190611faa565b6003830154845491925090158061074257506002830154155b1561075357825460038401556107c7565b600061079461271061078e86600001546104a889600001546104a8896107886127108d6002015461186890919063ffffffff16565b90611868565b90611ad1565b90506175308111156107a557506175305b6107b1816127106118a9565b84549091506107c09082611868565b6003850155505b60048301541561089157600354600480850154604051634331052360e11b81526000936064936001600160a01b03909116926386620a46926108099201612120565b60606040518083038186803b15801561082157600080fd5b505afa158015610835573d6000803e3d6000fd5b505050506040513d601f19601f820116820180604052508101906108599190611f55565b602001518161086457fe5b06905061088360646104a883876003015461186890919063ffffffff16565b600385018054919091019055505b6108b0816104ae85600301548760010154611ad190919063ffffffff16565b84600101819055505050505050565b6006546001600160a01b031681565b6000600783815481106108dd57fe5b6000918252602080832086845260088252604080852033865290925292208054600790920290920192508311156109265760405162461bcd60e51b8152600401610461906123c3565b61092f84610a26565b600061095d82600101546104ae64e8d4a510006104a88760050154876003015461186890919063ffffffff16565b9050801561096f5761096f338261192d565b831561099c57815461098190856118eb565b8255600283015461099c906001600160a01b03163386611af6565b6109a58561066d565b6109c964e8d4a510006104a88560050154856003015461186890919063ffffffff16565b6001830155604051859033907ff279e6a1f5e320cca91135676d9cb6e44ca8a08c0b88342bcdb1144f6511b56890610a02908890612120565b60405180910390a35050505050565b6003546001600160a01b031681565b600a5481565b600060078281548110610a3557fe5b9060005260206000209060070201905080600401544311610a565750610bca565b60018101541580610a6957506003810154155b15610a7a5743600490910155610bca565b6000610a938260040154436118eb90919063ffffffff16565b90506000610aba6009546104a885600301546107886005548761186890919063ffffffff16565b6001546004549192506001600160a01b03908116916340c10f199116610ae184600a6118a9565b6040518363ffffffff1660e01b8152600401610afe9291906120f2565b600060405180830381600087803b158015610b1857600080fd5b505af1158015610b2c573d6000803e3d6000fd5b50506001546040516340c10f1960e01b81526001600160a01b0390911692506340c10f199150610b6290309085906004016120f2565b600060405180830381600087803b158015610b7c57600080fd5b505af1158015610b90573d6000803e3d6000fd5b5050506001840154610bbb9150610bb0906104a88464e8d4a51000611868565b600585015490611ad1565b60058401555050436004909101555b50565b600060078281548110610bdc57fe5b60009182526020808320858452600882526040808520338652909252922060038101546007929092029092016001810154909350610c19916118eb565b600183015560028101548254610c2e916118eb565b8255805460006003830181905580835560028084018290556001840191909155830154610c65906001600160a01b03163383611af6565b83336001600160a01b03167fbb757047c2b5f3974fe26b7c10f732e7bce710b0952a71082702781e62ae059583604051610c9f9190612120565b60405180910390a350505050565b60075460005b81811015610ccc57610cc481610a26565b600101610cb3565b5050565b610cd8611acd565b6000546001600160a01b03908116911614610d055760405162461bcd60e51b815260040161046190612357565b600080546040516001600160a01b03909116907f8be0079c531659141344cd1fd0a4f28419497f9722a3daafe3b4186f6b6457e0908390a3600080546001600160a01b0319169055565b6002546001600160a01b031681565b610d66611acd565b6000546001600160a01b03908116911614610d935760405162461bcd60e51b815260040161046190612357565b6127108261ffff161115610db95760405162461bcd60e51b81526004016104619061215c565b8015610dc757610dc7610cad565b6000600a544311610dda57600a54610ddc565b435b600954909150610dec9086611ad1565b6009556040805160e0810182526000808252602082018181526001600160a01b03978816938301938452606083019889526080830194855260a0830182815261ffff97881660c08501908152600780546001810182559481905294517fa66cc928b5edb82af9bd49922954155ab7b0942694bea4ce44661d9a8736c688949095029384019490945590517fa66cc928b5edb82af9bd49922954155ab7b0942694bea4ce44661d9a8736c68983015592517fa66cc928b5edb82af9bd49922954155ab7b0942694bea4ce44661d9a8736c68a820180546001600160a01b031916919098161790965595517fa66cc928b5edb82af9bd49922954155ab7b0942694bea4ce44661d9a8736c68b86015590517fa66cc928b5edb82af9bd49922954155ab7b0942694bea4ce44661d9a8736c68c850155517fa66cc928b5edb82af9bd49922954155ab7b0942694bea4ce44661d9a8736c68d8401555091517fa66cc928b5edb82af9bd49922954155ab7b0942694bea4ce44661d9a8736c68e909101805461ffff191691909216179055565b6006546001600160a01b03163314610fa55760405162461bcd60e51b8152600401610461906123ef565b600680546001600160a01b0319166001600160a01b0392909216919091179055565b6004546001600160a01b03163314610ff15760405162461bcd60e51b8152600401610461906122ae565b600480546001600160a01b0319166001600160a01b0392909216919091179055565b6000546001600160a01b031690565b6008602090815260009283526040808420909152908252902080546001820154600283015460038401546004909401549293919290919085565b6000806007848154811061106c57fe5b600091825260208083208784526008825260408085206001600160a01b03808a16875293528085206005600790950290920193840154600285015491516370a0823160e01b815294965091949193919216906370a08231906110d29030906004016120ba565b60206040518083038186803b1580156110ea57600080fd5b505afa1580156110fe573d6000803e3d6000fd5b505050506040513d601f19601f820116820180604052508101906111229190611faa565b905083600401544311801561113657508015155b156111ac5760006111548560040154436118eb90919063ffffffff16565b9050600061117b6009546104a888600301546107886005548761186890919063ffffffff16565b90506111a76111a087600101546104a864e8d4a510008561186890919063ffffffff16565b8590611ad1565b935050505b6111d483600101546104ae64e8d4a510006104a886886003015461186890919063ffffffff16565b9450505050505b92915050565b6000600783815481106111f057fe5b6000918252602080832086845260088252604080852033865290925292206007909102909101915061122184610a26565b80541561126a57600061125682600101546104ae64e8d4a510006104a88760050154876003015461186890919063ffffffff16565b9050801561126857611268338261192d565b505b82156112b357600254611288906001600160a01b0316333086611b4c565b60028101546112979084611ad1565b600282015581546112a89084611ad1565b82556112b38461066d565b6112d764e8d4a510006104a88460050154846003015461186890919063ffffffff16565b6001820155604051849033907f90890809c654f11d6e72a28fa60149770a0d11ec6c92319d6ceb2bb0a4ea1a1590610c9f908790612120565b6001546001600160a01b031681565b60006007838154811061132e57fe5b6000918252602080832086845260088252604080852033865290925292208054600790920290920192508311156113775760405162461bcd60e51b8152600401610461906123c3565b61138084610a26565b60006113ae82600101546104ae64e8d4a510006104a88760050154876003015461186890919063ffffffff16565b905080156113c0576113c0338261192d565b83156109a5576113d03385611b6d565b60028201546113df90856118eb565b600283015582546113f090856118eb565b83556109a58561066d565b60055481565b60006007838154811061141057fe5b6000918252602080832086845260088252604080852033865290925292206007909102909101915061144184610a26565b80541561148a57600061147682600101546104ae64e8d4a510006104a88760050154876003015461186890919063ffffffff16565b9050801561148857611488338261192d565b505b600481015461150157600354604051632142170760e11b81526001600160a01b03909116906342842e0e906114c7903390309088906004016120ce565b600060405180830381600087803b1580156114e157600080fd5b505af11580156114f5573d6000803e3d6000fd5b50505050600481018390555b61150a8461066d565b61152e64e8d4a510006104a88460050154846003015461186890919063ffffffff16565b816001018190555083336001600160a01b03167f90890809c654f11d6e72a28fa60149770a0d11ec6c92319d6ceb2bb0a4ea1a156001604051610c9f9190612120565b6004546001600160a01b031681565b611588611acd565b6000546001600160a01b039081169116146115b55760405162461bcd60e51b815260040161046190612357565b6127108261ffff1611156115db5760405162461bcd60e51b815260040161046190612312565b80156115e9576115e9610cad565b6116208361078e600787815481106115fd57fe5b9060005260206000209060070201600301546009546118eb90919063ffffffff16565b600981905550826007858154811061163457fe5b906000526020600020906007020160030181905550816007858154811061165757fe5b906000526020600020906007020160060160006101000a81548161ffff021916908361ffff16021790555050505050565b60006007838154811061169757fe5b600091825260208083208684526008825260408085203386529092529220600790910290910191506116c884610a26565b8054156117115760006116fd82600101546104ae64e8d4a510006104a88760050154876003015461186890919063ffffffff16565b9050801561170f5761170f338261192d565b505b82156117a9576002820154611731906001600160a01b0316333086611b4c565b600682015461ffff161561179a57600682015460009061175e90612710906104a890879061ffff16611868565b6006546002850154919250611780916001600160a01b03908116911683611af6565b81546117929082906104ae9087611ad1565b8255506117a9565b80546117a69084611ad1565b81555b6112b38461066d565b6117ba611acd565b6000546001600160a01b039081169116146117e75760405162461bcd60e51b815260040161046190612357565b6001600160a01b03811661180d5760405162461bcd60e51b8152600401610461906121eb565b600080546040516001600160a01b03808516939216917f8be0079c531659141344cd1fd0a4f28419497f9722a3daafe3b4186f6b6457e091a3600080546001600160a01b0319166001600160a01b0392909216919091179055565b600082611877575060006111db565b8282028284828161188457fe5b04146118a25760405162461bcd60e51b8152600401610461906122d1565b9392505050565b60006118a283836040518060400160405280601a81526020017f536166654d6174683a206469766973696f6e206279207a65726f000000000000815250611c5c565b60006118a283836040518060400160405280601e81526020017f536166654d6174683a207375627472616374696f6e206f766572666c6f770000815250611c93565b6001546040516370a0823160e01b81526000916001600160a01b0316906370a082319061195e9030906004016120ba565b60206040518083038186803b15801561197657600080fd5b505afa15801561198a573d6000803e3d6000fd5b505050506040513d601f19601f820116820180604052508101906119ae9190611faa565b905080821115611a425760015460405163a9059cbb60e01b81526001600160a01b039091169063a9059cbb906119ea90869085906004016120f2565b602060405180830381600087803b158015611a0457600080fd5b505af1158015611a18573d6000803e3d6000fd5b505050506040513d601f19601f82011682018060405250810190611a3c9190611f39565b50611ac8565b60015460405163a9059cbb60e01b81526001600160a01b039091169063a9059cbb90611a7490869086906004016120f2565b602060405180830381600087803b158015611a8e57600080fd5b505af1158015611aa2573d6000803e3d6000fd5b505050506040513d601f19601f82011682018060405250810190611ac69190611f39565b505b505050565b3390565b6000828201838110156118a25760405162461bcd60e51b815260040161046190612231565b611ac88363a9059cbb60e01b8484604051602401611b159291906120f2565b60408051601f198184030181529190526020810180516001600160e01b03166001600160e01b031990931692909217909152611cbf565b611ac6846323b872dd60e01b858585604051602401611b15939291906120ce565b6002546040516370a0823160e01b81526000916001600160a01b0316906370a0823190611b9e9030906004016120ba565b60206040518083038186803b158015611bb657600080fd5b505afa158015611bca573d6000803e3d6000fd5b505050506040513d601f19601f82011682018060405250810190611bee9190611faa565b905080821115611c2a5760025460405163a9059cbb60e01b81526001600160a01b039091169063a9059cbb906119ea90869085906004016120f2565b60025460405163a9059cbb60e01b81526001600160a01b039091169063a9059cbb90611a7490869086906004016120f2565b60008183611c7d5760405162461bcd60e51b81526004016104619190612129565b506000838581611c8957fe5b0495945050505050565b60008184841115611cb75760405162461bcd60e51b81526004016104619190612129565b505050900390565b6060611d14826040518060400160405280602081526020017f5361666542455032303a206c6f772d6c6576656c2063616c6c206661696c6564815250856001600160a01b0316611d4e9092919063ffffffff16565b805190915015611ac85780806020019051810190611d329190611f39565b611ac85760405162461bcd60e51b8152600401610461906121a1565b6060611d5d8484600085611d65565b949350505050565b606082471015611d875760405162461bcd60e51b815260040161046190612268565b611d9085611e26565b611dac5760405162461bcd60e51b81526004016104619061238c565b60006060866001600160a01b03168587604051611dc9919061209e565b60006040518083038185875af1925050503d8060008114611e06576040519150601f19603f3d011682016040523d82523d6000602084013e611e0b565b606091505b5091509150611e1b828286611e2c565b979650505050505050565b3b151590565b60608315611e3b5750816118a2565b825115611e4b5782518084602001fd5b8160405162461bcd60e51b81526004016104619190612129565b600060208284031215611e76578081fd5b81356118a281612502565b60008060008060808587031215611e96578283fd5b8435611ea181612502565b9350602085810135611eb281612502565b935060408601359250606086013567ffffffffffffffff80821115611ed5578384fd5b818801915088601f830112611ee8578384fd5b813581811115611ef6578485fd5b611f08601f8201601f191685016124af565b91508082528984828501011115611f1d578485fd5b8084840185840137810190920192909252939692955090935050565b600060208284031215611f4a578081fd5b81516118a281612517565b600060608284031215611f66578081fd5b611f7060606124af565b8251815260208301516020820152604083015160408201528091505092915050565b600060208284031215611fa3578081fd5b5035919050565b600060208284031215611fbb578081fd5b5051919050565b60008060408385031215611fd4578182fd5b823591506020830135611fe681612502565b809150509250929050565b60008060008060808587031215612006578384fd5b84359350602085013561201881612502565b9250604085013561ffff8116811461202e578283fd5b9150606085013561203e81612517565b939692955090935050565b6000806040838503121561205b578182fd5b50508035926020909101359150565b6000806000806080858703121561207f578384fd5b8435935060208501359250604085013561ffff8116811461202e578283fd5b600082516120b08184602087016124d6565b9190910192915050565b6001600160a01b0391909116815260200190565b6001600160a01b039384168152919092166020820152604081019190915260600190565b6001600160a01b03929092168252602082015260400190565b6001600160e01b031991909116815260200190565b90815260200190565b60006020825282518060208401526121488160408501602087016124d6565b601f01601f19169190910160400192915050565b60208082526025908201527f6164643a20696e76616c6964206465706f7369742066656520626173697320706040820152646f696e747360d81b606082015260800190565b6020808252602a908201527f5361666542455032303a204245503230206f7065726174696f6e20646964206e6040820152691bdd081cdd58d8d9595960b21b606082015260800190565b60208082526026908201527f4f776e61626c653a206e6577206f776e657220697320746865207a65726f206160408201526564647265737360d01b606082015260800190565b6020808252601b908201527f536166654d6174683a206164646974696f6e206f766572666c6f770000000000604082015260600190565b60208082526026908201527f416464726573733a20696e73756666696369656e742062616c616e636520666f6040820152651c8818d85b1b60d21b606082015260800190565b6020808252600990820152686465763a207775743f60b81b604082015260600190565b60208082526021908201527f536166654d6174683a206d756c7469706c69636174696f6e206f766572666c6f6040820152607760f81b606082015260800190565b60208082526025908201527f7365743a20696e76616c6964206465706f7369742066656520626173697320706040820152646f696e747360d81b606082015260800190565b6020808252818101527f4f776e61626c653a2063616c6c6572206973206e6f7420746865206f776e6572604082015260600190565b6020808252601d908201527f416464726573733a2063616c6c20746f206e6f6e2d636f6e7472616374000000604082015260600190565b6020808252601290820152711dda5d1a191c985dce881b9bdd0819dbdbd960721b604082015260600190565b60208082526018908201527f736574466565416464726573733a20464f5242494444454e0000000000000000604082015260600190565b6020808252600f908201526e1d5cd95c881a185cc81b9bc8139195608a1b604082015260600190565b96875260208701959095526001600160a01b039390931660408601526060850191909152608084015260a083015261ffff1660c082015260e00190565b948552602085019390935260408401919091526060830152608082015260a00190565b60405181810167ffffffffffffffff811182821017156124ce57600080fd5b604052919050565b60005b838110156124f15781810151838201526020016124d9565b83811115611ac65750506000910152565b6001600160a01b0381168114610bca57600080fd5b8015158114610bca57600080fdfea264697066735822122056c2413c216e49bea6e3f3b5b4ed4a67f32a29c83073bedff48cbdea1e12b3a564736f6c634300060c0033",
  "immutableReferences": {},
  "source": "// SPDX-License-Identifier: MIT\n\npragma solidity 0.6.12;\npragma experimental ABIEncoderV2;\n\nimport \"@openzeppelin/contracts/math/SafeMath.sol\";\nimport \"./libs/IBEP20.sol\";\nimport \"./libs/SafeBEP20.sol\";\nimport \"@openzeppelin/contracts/access/Ownable.sol\";\nimport \"@openzeppelin/contracts/token/ERC721/ERC721Holder.sol\";\nimport \"@openzeppelin/contracts/token/ERC721/IERC721.sol\";\n\nimport \"./RunnerToken.sol\";\nimport \"./EnergyToken.sol\";\n\nstruct Type {\n    uint id;\n    uint bonus;\n    uint rarity;\n}\n\ninterface RunnerNFT is IERC721 {\n    function getTypeByTokenId(uint id) external view returns (Type memory);\n}\n\n\n// MasterChef is the master of Energy. He can make Energy and he is a fair guy.\n//\n// Note that it's ownable and the owner wields tremendous power. The ownership\n// will be transferred to a governance smart contract once Energy is sufficiently\n// distributed and the community can show to govern itself.\n//\n// Have fun reading it. Hopefully it's bug-free. God bless.\ncontract MasterChef is Ownable, ERC721Holder {\n    using SafeMath for uint256;\n    using SafeBEP20 for IBEP20;\n\n    // Info of each user.\n    struct UserInfo {\n        uint256 amount;         // How many LP tokens the user has provided.\n        uint256 rewardDebt;     // Reward debt. See explanation below.\n        uint256 runner;         // Runner amount\n        uint256 speed;          // User speed\n        uint nftId;\n        //\n        // We do some fancy math here. Basically, any point in time, the amount of Energys\n        // entitled to a user but is pending to be distributed is:\n        //\n        //   pending reward = (user.speed * pool.accEnergyPerSpeed) - user.rewardDebt\n        //\n        // Whenever a user deposits or withdraws. Here's what happens:\n        //   1. The pool's `accEnergyPerSpeed` (and `lastRewardBlock`) gets updated.\n        //   2. User receives the pending reward sent to his/her address.\n        //   3. User's `speed` gets updated.\n        //   4. User's `rewardDebt` gets updated.\n    }\n\n    // Info of each pool.\n    struct PoolInfo {\n        uint256 totalRunner;\n        uint256 totalSpeed;\n        IBEP20 lpToken;           // Address of LP token contract.\n        uint256 allocPoint;       // How many allocation points assigned to this pool. Energys to distribute per block.\n        uint256 lastRewardBlock;  // Last block number that Energys distribution occurs.\n        uint256 accEnergyPerSpeed;   // Accumulated Energys per share, times 1e12. See below.\n        uint16 depositFeeBP;      // Deposit fee in basis points\n    }\n\n    // The ENERGY TOKEN!\n    EnergyToken public energy;\n    \n    // The RUNNER TOKEN!\n    RunnerToken public runner;\n    \n    // The NFT TOKEN!\n    RunnerNFT public nft;\n    \n    // Dev address.\n    address public devaddr;\n    // ENERGY tokens created per block.\n    uint256 public energyPerBlock;\n    // Deposit Fee address\n    address public feeAddress;\n\n    // Info of each pool.\n    PoolInfo[] public poolInfo;\n    \n    // Info of each user that stakes LP tokens.\n    mapping (uint256 => mapping (address => UserInfo)) public userInfo;\n    \n    // Total allocation points. Must be the sum of all allocation points in all pools.\n    uint256 public totalAllocPoint = 0;\n    // The block number when Energy mining starts.\n    uint256 public startBlock;\n\n    event Deposit(address indexed user, uint256 indexed pid, uint256 amount);\n    event Withdraw(address indexed user, uint256 indexed pid, uint256 amount);\n    event EmergencyWithdraw(address indexed user, uint256 indexed pid, uint256 amount);\n\n    constructor(\n        EnergyToken _energy,\n        RunnerToken _runner,\n        RunnerNFT _nft,\n        address _devaddr,\n        address _feeAddress,\n        uint256 _energyPerBlock,\n        uint256 _startBlock\n    ) public {\n        require(_devaddr != address(0), \"address can't be 0\");\n        require(_feeAddress != address(0), \"address can't be 0\");\n        \n        runner = _runner;\n        energy = _energy;\n        devaddr = _devaddr;\n        feeAddress = _feeAddress;\n        energyPerBlock = _energyPerBlock;\n        startBlock = _startBlock;\n        nft = _nft;\n    }\n\n    function poolLength() external view returns (uint256) {\n        return poolInfo.length;\n    }\n\n    // Add a new lp to the pool. Can only be called by the owner.\n    // XXX DO NOT add the same LP token more than once. Rewards will be messed up if you do.\n    function add(uint256 _allocPoint, IBEP20 _lpToken, uint16 _depositFeeBP, bool _withUpdate) public onlyOwner {\n        require(_depositFeeBP <= 10000, \"add: invalid deposit fee basis points\");\n        if (_withUpdate) {\n            massUpdatePools();\n        }\n        \n        uint256 lastRewardBlock = block.number > startBlock ? block.number : startBlock;\n        totalAllocPoint = totalAllocPoint.add(_allocPoint);\n        poolInfo.push(PoolInfo({\n            totalRunner:0,\n            totalSpeed:0,\n            lpToken: _lpToken,\n            allocPoint: _allocPoint,\n            lastRewardBlock: lastRewardBlock,\n            accEnergyPerSpeed: 0,\n            depositFeeBP: _depositFeeBP\n        }));\n    }\n\n    // Update the given pool's ENERGY allocation point and deposit fee. Can only be called by the owner.\n    function set(uint256 _pid, uint256 _allocPoint, uint16 _depositFeeBP, bool _withUpdate) public onlyOwner {\n        require(_depositFeeBP <= 10000, \"set: invalid deposit fee basis points\");\n        if (_withUpdate) {\n            massUpdatePools();\n        }\n        totalAllocPoint = totalAllocPoint.sub(poolInfo[_pid].allocPoint).add(_allocPoint);\n        poolInfo[_pid].allocPoint = _allocPoint;\n        poolInfo[_pid].depositFeeBP = _depositFeeBP;\n    }\n\n    // View function to see pending ENERGYs on frontend.\n    function pendingEnergy(uint256 _pid, address _user) external view returns (uint256) {\n        PoolInfo storage pool = poolInfo[_pid];\n        UserInfo storage user = userInfo[_pid][_user];\n        uint256 accEnergyPerSpeed = pool.accEnergyPerSpeed;\n        uint256 lpSupply = pool.lpToken.balanceOf(address(this));\n        if (block.number > pool.lastRewardBlock && lpSupply != 0) {\n            uint256 blockAmount = block.number.sub(pool.lastRewardBlock);\n            uint256 energyReward = blockAmount.mul(energyPerBlock).mul(pool.allocPoint).div(totalAllocPoint);\n            accEnergyPerSpeed = accEnergyPerSpeed.add(energyReward.mul(1e12).div(pool.totalSpeed));\n        }\n        return user.speed.mul(accEnergyPerSpeed).div(1e12).sub(user.rewardDebt);\n    }\n\n    // Update reward variables for all pools. Be careful of gas spending!\n    function massUpdatePools() public {\n        uint256 length = poolInfo.length;\n        for (uint256 pid = 0; pid < length; ++pid) {\n            updatePool(pid);\n        }\n    }\n\n    // Update reward variables of the given pool to be up-to-date.\n    function updatePool(uint256 _pid) public {\n        PoolInfo storage pool = poolInfo[_pid];\n        if (block.number <= pool.lastRewardBlock) {\n            return;\n        }\n        if (pool.totalSpeed == 0 || pool.allocPoint == 0) {\n            pool.lastRewardBlock = block.number;\n            return;\n        }\n        uint256 blockAmount = block.number.sub(pool.lastRewardBlock);\n        uint256 energyReward = blockAmount.mul(energyPerBlock).mul(pool.allocPoint).div(totalAllocPoint);\n        energy.mint(devaddr, energyReward.div(10));\n        energy.mint(address(this), energyReward);\n        pool.accEnergyPerSpeed = pool.accEnergyPerSpeed.add(energyReward.mul(1e12).div(pool.totalSpeed));\n        pool.lastRewardBlock = block.number;\n    }\n\n    // Deposit LP tokens to MasterChef for ENERGY allocation.\n    function deposit(uint256 _pid, uint256 _amount) public {\n        PoolInfo storage pool = poolInfo[_pid];\n        UserInfo storage user = userInfo[_pid][msg.sender];\n        updatePool(_pid);\n        if (user.amount > 0) {\n            uint256 pending = user.speed.mul(pool.accEnergyPerSpeed).div(1e12).sub(user.rewardDebt);\n            if(pending > 0) {\n                safeEnergyTransfer(msg.sender, pending);\n            }\n        }\n        if(_amount > 0) {\n            pool.lpToken.safeTransferFrom(address(msg.sender), address(this), _amount);\n            if(pool.depositFeeBP > 0){\n                uint256 depositFee = _amount.mul(pool.depositFeeBP).div(10000);\n                pool.lpToken.safeTransfer(feeAddress, depositFee);\n                user.amount = user.amount.add(_amount).sub(depositFee);\n            }else{\n                user.amount = user.amount.add(_amount);\n            }\n        }\n        \n        updateSpeed(_pid);\n        \n        user.rewardDebt = user.speed.mul(pool.accEnergyPerSpeed).div(1e12);\n        emit Deposit(msg.sender, _pid, _amount);\n    }\n\n    // Withdraw LP tokens from MasterChef.\n    function withdraw(uint256 _pid, uint256 _amount) public {\n        PoolInfo storage pool = poolInfo[_pid];\n        UserInfo storage user = userInfo[_pid][msg.sender];\n        require(user.amount >= _amount, \"withdraw: not good\");\n        updatePool(_pid);\n        uint256 pending = user.speed.mul(pool.accEnergyPerSpeed).div(1e12).sub(user.rewardDebt);\n        if (pending > 0) {\n            safeEnergyTransfer(msg.sender, pending);\n        }\n        if (_amount > 0) {\n            user.amount = user.amount.sub(_amount);\n            pool.lpToken.safeTransfer(address(msg.sender), _amount);\n        }\n        updateSpeed(_pid);\n        \n        user.rewardDebt = user.speed.mul(pool.accEnergyPerSpeed).div(1e12);\n        emit Withdraw(msg.sender, _pid, _amount);\n    }\n    \n    // Deposit Runner to MasterChef to Speed UP :).\n    function depositRunner(uint256 _pid, uint256 _amount) public {\n        PoolInfo storage pool = poolInfo[_pid];\n        UserInfo storage user = userInfo[_pid][msg.sender];\n        \n        updatePool(_pid);\n        if (user.amount > 0) {\n            uint256 pending = user.speed.mul(pool.accEnergyPerSpeed).div(1e12).sub(user.rewardDebt);\n            if(pending > 0) {\n                safeEnergyTransfer(msg.sender, pending);\n            }\n        }\n        \n        if(_amount > 0) {\n            IBEP20(runner).safeTransferFrom(address(msg.sender), address(this), _amount);\n            user.runner = user.runner.add(_amount);\n            pool.totalRunner = pool.totalRunner.add(_amount);\n            updateSpeed(_pid);\n        }\n    \n        user.rewardDebt = user.speed.mul(pool.accEnergyPerSpeed).div(1e12);\n        emit Deposit(msg.sender, _pid, _amount);\n    }\n    \n        // Withdraw Runner from MasterChef.\n    function withdrawRunner(uint256 _pid, uint256 _amount) public {\n        PoolInfo storage pool = poolInfo[_pid];\n        UserInfo storage user = userInfo[_pid][msg.sender];\n        require(user.amount >= _amount, \"withdraw: not good\");\n        updatePool(_pid);\n        uint256 pending = user.speed.mul(pool.accEnergyPerSpeed).div(1e12).sub(user.rewardDebt);\n        if(pending > 0) {\n            safeEnergyTransfer(msg.sender, pending);\n        }\n        if(_amount > 0) {\n            safeRunnerTransfer(address(msg.sender), _amount);\n            user.runner = user.runner.sub(_amount);\n            pool.totalRunner = pool.totalRunner.sub(_amount);\n            updateSpeed(_pid);\n        }\n        user.rewardDebt = user.speed.mul(pool.accEnergyPerSpeed).div(1e12);\n        emit Withdraw(msg.sender, _pid, _amount);\n    }\n    \n    function depositNFT(uint256 _pid, uint _nftId) public {\n        PoolInfo storage pool = poolInfo[_pid];\n        UserInfo storage user = userInfo[_pid][msg.sender];\n        \n        updatePool(_pid);\n        if (user.amount > 0) {\n            uint256 pending = user.speed.mul(pool.accEnergyPerSpeed).div(1e12).sub(user.rewardDebt);\n            if(pending > 0) {\n                safeEnergyTransfer(msg.sender, pending);\n            }\n        }\n        if (user.nftId == 0) {\n            nft.safeTransferFrom(address(msg.sender), address(this), _nftId);\n            user.nftId = _nftId;\n        }\n        updateSpeed(_pid);\t\n    \n        user.rewardDebt = user.speed.mul(pool.accEnergyPerSpeed).div(1e12);\n        emit Deposit(msg.sender, _pid, 1);\n    }\n    \n     function withdrawNFT(uint256 _pid) public {\n        PoolInfo storage pool = poolInfo[_pid];\n        UserInfo storage user = userInfo[_pid][msg.sender];\n        require(user.nftId > 0, \"user has no NFT\");\n        \n        updatePool(_pid);\n        if (user.amount > 0) {\n            uint256 pending = user.speed.mul(pool.accEnergyPerSpeed).div(1e12).sub(user.rewardDebt);\n            if(pending > 0) {\n                safeEnergyTransfer(msg.sender, pending);\n            }\n        }\n        \n        nft.transferFrom(address(this), address(msg.sender), user.nftId);\n        user.nftId = 0;\n        updateSpeed(_pid);\n    \n        user.rewardDebt = user.speed.mul(pool.accEnergyPerSpeed).div(1e12);\n        emit Withdraw(msg.sender, _pid, 1);\n    }\n    \n    function updateSpeed(uint256 _pid) public {\n        PoolInfo storage pool = poolInfo[_pid];\n        UserInfo storage user = userInfo[_pid][msg.sender];\n        \n        uint256 lpSupply = pool.lpToken.balanceOf(address(this));\n        \n        uint256 oldSpeed = user.speed;\n            \n        if (pool.totalRunner == 0 || user.runner == 0) {\n            user.speed = user.amount;\n        } else {\n            uint256 speedKof = user.runner.mul(10000).mul(lpSupply).div(pool.totalRunner).div(user.amount).add(10000);\n            if (speedKof > 30000) {\n                speedKof = 30000;\n            }    \n            speedKof = speedKof.div(10000);\n            \n            user.speed = user.amount.mul(speedKof);\n        }\n        \n        if (user.nftId > 0) {\n            uint bonus = nft.getTypeByTokenId(user.nftId).bonus % 100;\n            user.speed = user.speed + user.speed.mul(bonus).div(100);\n        }\n            \n        \n        pool.totalSpeed = pool.totalSpeed.add(user.speed).sub(oldSpeed);\n    }\n    \n    // Withdraw without caring about rewards. EMERGENCY ONLY.\n    function emergencyWithdraw(uint256 _pid) public {\n        PoolInfo storage pool = poolInfo[_pid];\n        UserInfo storage user = userInfo[_pid][msg.sender];\n        \n        pool.totalSpeed = pool.totalSpeed.sub(user.speed);\n        pool.totalRunner = pool.totalRunner.sub(user.runner);\n        uint256 amount = user.amount;\n        user.speed = 0;\n        user.amount = 0;\n        user.runner = 0;\n        user.rewardDebt = 0;\n\n        pool.lpToken.safeTransfer(address(msg.sender), amount);\n        emit EmergencyWithdraw(msg.sender, _pid, amount);\n    }\n\n    // Safe energy transfer function, just in case if rounding error causes pool to not have enough ENERGYs.\n    function safeEnergyTransfer(address _to, uint256 _amount) internal {\n        uint256 energyBal = energy.balanceOf(address(this));\n        if (_amount > energyBal) {\n            energy.transfer(_to, energyBal);\n        } else {\n            energy.transfer(_to, _amount);\n        }\n    }\n    \n     // Safe Runner transfer function, just in case if rounding error causes pool to not have enough RUNNERs.\n    function safeRunnerTransfer(address _to, uint256 _amount) internal {\n        uint256 runnerBal = runner.balanceOf(address(this));\n        if (_amount > runnerBal) {\n            runner.transfer(_to, runnerBal);\n        } else {\n            runner.transfer(_to, _amount);\n        }\n    }\n\n    // Update dev address by the previous dev.\n    function dev(address _devaddr) public {\n        require(msg.sender == devaddr, \"dev: wut?\");\n        devaddr = _devaddr;\n    }\n\n    function setFeeAddress(address _feeAddress) public{\n        require(msg.sender == feeAddress, \"setFeeAddress: FORBIDDEN\");\n        feeAddress = _feeAddress;\n    }\n\n    //Pancake has to add hidden dummy pools inorder to alter the emission, here we make it simple and transparent to all.\n    function updateEmissionRate(uint256 _energyPerBlock) public onlyOwner {\n        massUpdatePools();\n        energyPerBlock = _energyPerBlock;\n    }\n}\n",
  "sourcePath": "/Users/alexei120991/Documents/Project/RUNNER/alex/master-chef-new/contracts/MasterChef.sol",
  "compiler": {
    "name": "solc",
    "version": "0.6.12+commit.27d51765.Emscripten.clang"
  },
  "schemaVersion": "3.3.4",
  "updatedAt": "2021-03-14T16:13:39.848Z",
  "networkType": "ethereum",
  "devdoc": {
    "kind": "dev",
    "methods": {
      "onERC721Received(address,address,uint256,bytes)": {
        "details": "See {IERC721Receiver-onERC721Received}. Always returns `IERC721Receiver.onERC721Received.selector`."
      },
      "owner()": {
        "details": "Returns the address of the current owner."
      },
      "renounceOwnership()": {
        "details": "Leaves the contract without owner. It will not be possible to call `onlyOwner` functions anymore. Can only be called by the current owner. NOTE: Renouncing ownership will leave the contract without an owner, thereby removing any functionality that is only available to the owner."
      },
      "transferOwnership(address)": {
        "details": "Transfers ownership of the contract to a new account (`newOwner`). Can only be called by the current owner."
      }
    },
    "version": 1
  },
  "userdoc": {
    "kind": "user",
    "methods": {},
    "version": 1
  }
}